{
	"StartStopUpdateExample.sol": {
		"test": {
			"abi": [
				{
					"inputs": [],
					"stateMutability": "nonpayable",
					"type": "constructor"
				},
				{
					"inputs": [
						{
							"internalType": "address payable",
							"name": "_to",
							"type": "address"
						}
					],
					"name": "destroySmartContract",
					"outputs": [],
					"stateMutability": "nonpayable",
					"type": "function"
				},
				{
					"inputs": [],
					"name": "getBalance",
					"outputs": [
						{
							"internalType": "uint256",
							"name": "",
							"type": "uint256"
						}
					],
					"stateMutability": "view",
					"type": "function"
				},
				{
					"inputs": [],
					"name": "paused",
					"outputs": [
						{
							"internalType": "bool",
							"name": "",
							"type": "bool"
						}
					],
					"stateMutability": "view",
					"type": "function"
				},
				{
					"inputs": [],
					"name": "sendMoney",
					"outputs": [],
					"stateMutability": "payable",
					"type": "function"
				},
				{
					"inputs": [
						{
							"internalType": "bool",
							"name": "_paused",
							"type": "bool"
						}
					],
					"name": "setPaused",
					"outputs": [],
					"stateMutability": "nonpayable",
					"type": "function"
				},
				{
					"inputs": [
						{
							"internalType": "address payable",
							"name": "_to",
							"type": "address"
						}
					],
					"name": "withdrawAllMoney",
					"outputs": [],
					"stateMutability": "nonpayable",
					"type": "function"
				}
			],
			"devdoc": {
				"kind": "dev",
				"methods": {},
				"version": 1
			},
			"evm": {
				"assembly": "    /* \"StartStopUpdateExample.sol\":37:1697  contract test {... */\n  mstore(0x40, 0x80)\n    /* \"StartStopUpdateExample.sol\":126:254  constructor() {... */\n  callvalue\n  dup1\n  iszero\n  tag_1\n  jumpi\n  0x00\n  dup1\n  revert\ntag_1:\n  pop\n    /* \"StartStopUpdateExample.sol\":159:169  msg.sender */\n  caller\n    /* \"StartStopUpdateExample.sol\":151:156  owner */\n  0x00\n  dup1\n    /* \"StartStopUpdateExample.sol\":151:169  owner = msg.sender */\n  0x0100\n  exp\n  dup2\n  sload\n  dup2\n  0xffffffffffffffffffffffffffffffffffffffff\n  mul\n  not\n  and\n  swap1\n  dup4\n  0xffffffffffffffffffffffffffffffffffffffff\n  and\n  mul\n  or\n  swap1\n  sstore\n  pop\n    /* \"StartStopUpdateExample.sol\":37:1697  contract test {... */\n  dataSize(sub_0)\n  dup1\n  dataOffset(sub_0)\n  0x00\n  codecopy\n  0x00\n  return\nstop\n\nsub_0: assembly {\n        /* \"StartStopUpdateExample.sol\":37:1697  contract test {... */\n      mstore(0x40, 0x80)\n      jumpi(tag_1, lt(calldatasize, 0x04))\n      shr(0xe0, calldataload(0x00))\n      dup1\n      0x0adec93c\n      eq\n      tag_2\n      jumpi\n      dup1\n      0x12065fe0\n      eq\n      tag_3\n      jumpi\n      dup1\n      0x16c38b3c\n      eq\n      tag_4\n      jumpi\n      dup1\n      0x39df43ff\n      eq\n      tag_5\n      jumpi\n      dup1\n      0x5c975abb\n      eq\n      tag_6\n      jumpi\n      dup1\n      0xcbedbf5a\n      eq\n      tag_7\n      jumpi\n    tag_1:\n      0x00\n      dup1\n      revert\n        /* \"StartStopUpdateExample.sol\":740:1269  function withdrawAllMoney(address payable _to) public { //스마트 계약의 모든 잔금 전송... */\n    tag_2:\n      callvalue\n      dup1\n      iszero\n      tag_8\n      jumpi\n      0x00\n      dup1\n      revert\n    tag_8:\n      pop\n      tag_9\n      0x04\n      dup1\n      calldatasize\n      sub\n      dup2\n      add\n      swap1\n      tag_10\n      swap2\n      swap1\n      tag_11\n      jump\t// in\n    tag_10:\n      tag_12\n      jump\t// in\n    tag_9:\n      stop\n        /* \"StartStopUpdateExample.sol\":389:583  function getBalance() public view returns(uint){ //리믹스는 잔고 확인 펑션을 만들어줘야하나?... */\n    tag_3:\n      callvalue\n      dup1\n      iszero\n      tag_13\n      jumpi\n      0x00\n      dup1\n      revert\n    tag_13:\n      pop\n      tag_14\n      tag_15\n      jump\t// in\n    tag_14:\n      mload(0x40)\n      tag_16\n      swap2\n      swap1\n      tag_17\n      jump\t// in\n    tag_16:\n      mload(0x40)\n      dup1\n      swap2\n      sub\n      swap1\n      return\n        /* \"StartStopUpdateExample.sol\":591:732  function setPaused(bool _paused) public {... */\n    tag_4:\n      callvalue\n      dup1\n      iszero\n      tag_18\n      jumpi\n      0x00\n      dup1\n      revert\n    tag_18:\n      pop\n      tag_19\n      0x04\n      dup1\n      calldatasize\n      sub\n      dup2\n      add\n      swap1\n      tag_20\n      swap2\n      swap1\n      tag_21\n      jump\t// in\n    tag_20:\n      tag_22\n      jump\t// in\n    tag_19:\n      stop\n        /* \"StartStopUpdateExample.sol\":1277:1692  function destroySmartContract(address payable _to) public  {//가로에 스마트 계약 안에 저장된 나머지 잔고를 받을 주소도 입력... */\n    tag_5:\n      callvalue\n      dup1\n      iszero\n      tag_23\n      jumpi\n      0x00\n      dup1\n      revert\n    tag_23:\n      pop\n      tag_24\n      0x04\n      dup1\n      calldatasize\n      sub\n      dup2\n      add\n      swap1\n      tag_25\n      swap2\n      swap1\n      tag_11\n      jump\t// in\n    tag_25:\n      tag_26\n      jump\t// in\n    tag_24:\n      stop\n        /* \"StartStopUpdateExample.sol\":80:98  bool public paused */\n    tag_6:\n      callvalue\n      dup1\n      iszero\n      tag_27\n      jumpi\n      0x00\n      dup1\n      revert\n    tag_27:\n      pop\n      tag_28\n      tag_29\n      jump\t// in\n    tag_28:\n      mload(0x40)\n      tag_30\n      swap2\n      swap1\n      tag_31\n      jump\t// in\n    tag_30:\n      mload(0x40)\n      dup1\n      swap2\n      sub\n      swap1\n      return\n        /* \"StartStopUpdateExample.sol\":310:382  function sendMoney() public payable { //에테르 받는 역할... */\n    tag_7:\n      tag_32\n      tag_33\n      jump\t// in\n    tag_32:\n      stop\n        /* \"StartStopUpdateExample.sol\":740:1269  function withdrawAllMoney(address payable _to) public { //스마트 계약의 모든 잔금 전송... */\n    tag_12:\n        /* \"StartStopUpdateExample.sol\":1023:1029  paused */\n      0x00\n      0x14\n      swap1\n      sload\n      swap1\n      0x0100\n      exp\n      swap1\n      div\n      0xff\n      and\n        /* \"StartStopUpdateExample.sol\":1022:1029  !paused */\n      iszero\n        /* \"StartStopUpdateExample.sol\":1014:1051  require(!paused,\"Contract is paused\") */\n      tag_35\n      jumpi\n      mload(0x40)\n      0x08c379a000000000000000000000000000000000000000000000000000000000\n      dup2\n      mstore\n      0x04\n      add\n      tag_36\n      swap1\n      tag_37\n      jump\t// in\n    tag_36:\n      mload(0x40)\n      dup1\n      swap2\n      sub\n      swap1\n      revert\n    tag_35:\n        /* \"StartStopUpdateExample.sol\":1086:1091  owner */\n      0x00\n      dup1\n      sload\n      swap1\n      0x0100\n      exp\n      swap1\n      div\n      0xffffffffffffffffffffffffffffffffffffffff\n      and\n        /* \"StartStopUpdateExample.sol\":1072:1091  msg.sender == owner */\n      0xffffffffffffffffffffffffffffffffffffffff\n      and\n        /* \"StartStopUpdateExample.sol\":1072:1082  msg.sender */\n      caller\n        /* \"StartStopUpdateExample.sol\":1072:1091  msg.sender == owner */\n      0xffffffffffffffffffffffffffffffffffffffff\n      and\n      eq\n        /* \"StartStopUpdateExample.sol\":1064:1118  require(msg.sender == owner, \" You are not the owner\") */\n      tag_38\n      jumpi\n      mload(0x40)\n      0x08c379a000000000000000000000000000000000000000000000000000000000\n      dup2\n      mstore\n      0x04\n      add\n      tag_39\n      swap1\n      tag_40\n      jump\t// in\n    tag_39:\n      mload(0x40)\n      dup1\n      swap2\n      sub\n      swap1\n      revert\n    tag_38:\n        /* \"StartStopUpdateExample.sol\":1226:1229  _to */\n      dup1\n        /* \"StartStopUpdateExample.sol\":1226:1238  _to.transfer */\n      0xffffffffffffffffffffffffffffffffffffffff\n      and\n        /* \"StartStopUpdateExample.sol\":1226:1261  _to.transfer(address(this).balance) */\n      0x08fc\n        /* \"StartStopUpdateExample.sol\":1239:1260  address(this).balance */\n      selfbalance\n        /* \"StartStopUpdateExample.sol\":1226:1261  _to.transfer(address(this).balance) */\n      swap1\n      dup2\n      iszero\n      mul\n      swap1\n      mload(0x40)\n      0x00\n      mload(0x40)\n      dup1\n      dup4\n      sub\n      dup2\n      dup6\n      dup9\n      dup9\n      call\n      swap4\n      pop\n      pop\n      pop\n      pop\n      iszero\n      dup1\n      iszero\n      tag_42\n      jumpi\n      returndatasize\n      0x00\n      dup1\n      returndatacopy\n      revert(0x00, returndatasize)\n    tag_42:\n      pop\n        /* \"StartStopUpdateExample.sol\":740:1269  function withdrawAllMoney(address payable _to) public { //스마트 계약의 모든 잔금 전송... */\n      pop\n      jump\t// out\n        /* \"StartStopUpdateExample.sol\":389:583  function getBalance() public view returns(uint){ //리믹스는 잔고 확인 펑션을 만들어줘야하나?... */\n    tag_15:\n        /* \"StartStopUpdateExample.sol\":431:435  uint */\n      0x00\n        /* \"StartStopUpdateExample.sol\":516:537  address(this).balance */\n      selfbalance\n        /* \"StartStopUpdateExample.sol\":509:537  return address(this).balance */\n      swap1\n      pop\n        /* \"StartStopUpdateExample.sol\":389:583  function getBalance() public view returns(uint){ //리믹스는 잔고 확인 펑션을 만들어줘야하나?... */\n      swap1\n      jump\t// out\n        /* \"StartStopUpdateExample.sol\":591:732  function setPaused(bool _paused) public {... */\n    tag_22:\n        /* \"StartStopUpdateExample.sol\":664:669  owner */\n      0x00\n      dup1\n      sload\n      swap1\n      0x0100\n      exp\n      swap1\n      div\n      0xffffffffffffffffffffffffffffffffffffffff\n      and\n        /* \"StartStopUpdateExample.sol\":650:669  msg.sender == owner */\n      0xffffffffffffffffffffffffffffffffffffffff\n      and\n        /* \"StartStopUpdateExample.sol\":650:660  msg.sender */\n      caller\n        /* \"StartStopUpdateExample.sol\":650:669  msg.sender == owner */\n      0xffffffffffffffffffffffffffffffffffffffff\n      and\n      eq\n        /* \"StartStopUpdateExample.sol\":642:697  require(msg.sender == owner , \" You are not the owner\") */\n      tag_45\n      jumpi\n      mload(0x40)\n      0x08c379a000000000000000000000000000000000000000000000000000000000\n      dup2\n      mstore\n      0x04\n      add\n      tag_46\n      swap1\n      tag_40\n      jump\t// in\n    tag_46:\n      mload(0x40)\n      dup1\n      swap2\n      sub\n      swap1\n      revert\n    tag_45:\n        /* \"StartStopUpdateExample.sol\":717:724  _paused */\n      dup1\n        /* \"StartStopUpdateExample.sol\":708:714  paused */\n      0x00\n      0x14\n        /* \"StartStopUpdateExample.sol\":708:724  paused = _paused */\n      0x0100\n      exp\n      dup2\n      sload\n      dup2\n      0xff\n      mul\n      not\n      and\n      swap1\n      dup4\n      iszero\n      iszero\n      mul\n      or\n      swap1\n      sstore\n      pop\n        /* \"StartStopUpdateExample.sol\":591:732  function setPaused(bool _paused) public {... */\n      pop\n      jump\t// out\n        /* \"StartStopUpdateExample.sol\":1277:1692  function destroySmartContract(address payable _to) public  {//가로에 스마트 계약 안에 저장된 나머지 잔고를 받을 주소도 입력... */\n    tag_26:\n        /* \"StartStopUpdateExample.sol\":1456:1461  owner */\n      0x00\n      dup1\n      sload\n      swap1\n      0x0100\n      exp\n      swap1\n      div\n      0xffffffffffffffffffffffffffffffffffffffff\n      and\n        /* \"StartStopUpdateExample.sol\":1444:1461  msg.sender==owner */\n      0xffffffffffffffffffffffffffffffffffffffff\n      and\n        /* \"StartStopUpdateExample.sol\":1444:1454  msg.sender */\n      caller\n        /* \"StartStopUpdateExample.sol\":1444:1461  msg.sender==owner */\n      0xffffffffffffffffffffffffffffffffffffffff\n      and\n      eq\n        /* \"StartStopUpdateExample.sol\":1436:1490  require(msg.sender==owner ,\" you are not the owner 3\") */\n      tag_48\n      jumpi\n      mload(0x40)\n      0x08c379a000000000000000000000000000000000000000000000000000000000\n      dup2\n      mstore\n      0x04\n      add\n      tag_49\n      swap1\n      tag_50\n      jump\t// in\n    tag_49:\n      mload(0x40)\n      dup1\n      swap2\n      sub\n      swap1\n      revert\n    tag_48:\n        /* \"StartStopUpdateExample.sol\":1514:1517  _to */\n      dup1\n        /* \"StartStopUpdateExample.sol\":1501:1518  selfdestruct(_to) */\n      0xffffffffffffffffffffffffffffffffffffffff\n      and\n      selfdestruct\n        /* \"StartStopUpdateExample.sol\":80:98  bool public paused */\n    tag_29:\n      0x00\n      0x14\n      swap1\n      sload\n      swap1\n      0x0100\n      exp\n      swap1\n      div\n      0xff\n      and\n      dup2\n      jump\t// out\n        /* \"StartStopUpdateExample.sol\":310:382  function sendMoney() public payable { //에테르 받는 역할... */\n    tag_33:\n      jump\t// out\n        /* \"#utility.yul\":88:205   */\n    tag_53:\n        /* \"#utility.yul\":197:198   */\n      0x00\n        /* \"#utility.yul\":194:195   */\n      dup1\n        /* \"#utility.yul\":187:199   */\n      revert\n        /* \"#utility.yul\":334:460   */\n    tag_55:\n        /* \"#utility.yul\":371:378   */\n      0x00\n        /* \"#utility.yul\":411:453   */\n      0xffffffffffffffffffffffffffffffffffffffff\n        /* \"#utility.yul\":404:409   */\n      dup3\n        /* \"#utility.yul\":400:454   */\n      and\n        /* \"#utility.yul\":389:454   */\n      swap1\n      pop\n        /* \"#utility.yul\":334:460   */\n      swap2\n      swap1\n      pop\n      jump\t// out\n        /* \"#utility.yul\":466:570   */\n    tag_56:\n        /* \"#utility.yul\":511:518   */\n      0x00\n        /* \"#utility.yul\":540:564   */\n      tag_78\n        /* \"#utility.yul\":558:563   */\n      dup3\n        /* \"#utility.yul\":540:564   */\n      tag_55\n      jump\t// in\n    tag_78:\n        /* \"#utility.yul\":529:564   */\n      swap1\n      pop\n        /* \"#utility.yul\":466:570   */\n      swap2\n      swap1\n      pop\n      jump\t// out\n        /* \"#utility.yul\":576:714   */\n    tag_57:\n        /* \"#utility.yul\":657:689   */\n      tag_80\n        /* \"#utility.yul\":683:688   */\n      dup2\n        /* \"#utility.yul\":657:689   */\n      tag_56\n      jump\t// in\n    tag_80:\n        /* \"#utility.yul\":650:655   */\n      dup2\n        /* \"#utility.yul\":647:690   */\n      eq\n        /* \"#utility.yul\":637:708   */\n      tag_81\n      jumpi\n        /* \"#utility.yul\":704:705   */\n      0x00\n        /* \"#utility.yul\":701:702   */\n      dup1\n        /* \"#utility.yul\":694:706   */\n      revert\n        /* \"#utility.yul\":637:708   */\n    tag_81:\n        /* \"#utility.yul\":576:714   */\n      pop\n      jump\t// out\n        /* \"#utility.yul\":720:875   */\n    tag_58:\n        /* \"#utility.yul\":774:779   */\n      0x00\n        /* \"#utility.yul\":812:818   */\n      dup2\n        /* \"#utility.yul\":799:819   */\n      calldataload\n        /* \"#utility.yul\":790:819   */\n      swap1\n      pop\n        /* \"#utility.yul\":828:869   */\n      tag_83\n        /* \"#utility.yul\":863:868   */\n      dup2\n        /* \"#utility.yul\":828:869   */\n      tag_57\n      jump\t// in\n    tag_83:\n        /* \"#utility.yul\":720:875   */\n      swap3\n      swap2\n      pop\n      pop\n      jump\t// out\n        /* \"#utility.yul\":881:1226   */\n    tag_11:\n        /* \"#utility.yul\":948:954   */\n      0x00\n        /* \"#utility.yul\":997:999   */\n      0x20\n        /* \"#utility.yul\":985:994   */\n      dup3\n        /* \"#utility.yul\":976:983   */\n      dup5\n        /* \"#utility.yul\":972:995   */\n      sub\n        /* \"#utility.yul\":968:1000   */\n      slt\n        /* \"#utility.yul\":965:1084   */\n      iszero\n      tag_85\n      jumpi\n        /* \"#utility.yul\":1003:1082   */\n      tag_86\n      tag_53\n      jump\t// in\n    tag_86:\n        /* \"#utility.yul\":965:1084   */\n    tag_85:\n        /* \"#utility.yul\":1123:1124   */\n      0x00\n        /* \"#utility.yul\":1148:1209   */\n      tag_87\n        /* \"#utility.yul\":1201:1208   */\n      dup5\n        /* \"#utility.yul\":1192:1198   */\n      dup3\n        /* \"#utility.yul\":1181:1190   */\n      dup6\n        /* \"#utility.yul\":1177:1199   */\n      add\n        /* \"#utility.yul\":1148:1209   */\n      tag_58\n      jump\t// in\n    tag_87:\n        /* \"#utility.yul\":1138:1209   */\n      swap2\n      pop\n        /* \"#utility.yul\":1094:1219   */\n      pop\n        /* \"#utility.yul\":881:1226   */\n      swap3\n      swap2\n      pop\n      pop\n      jump\t// out\n        /* \"#utility.yul\":1232:1309   */\n    tag_59:\n        /* \"#utility.yul\":1269:1276   */\n      0x00\n        /* \"#utility.yul\":1298:1303   */\n      dup2\n        /* \"#utility.yul\":1287:1303   */\n      swap1\n      pop\n        /* \"#utility.yul\":1232:1309   */\n      swap2\n      swap1\n      pop\n      jump\t// out\n        /* \"#utility.yul\":1315:1433   */\n    tag_60:\n        /* \"#utility.yul\":1402:1426   */\n      tag_90\n        /* \"#utility.yul\":1420:1425   */\n      dup2\n        /* \"#utility.yul\":1402:1426   */\n      tag_59\n      jump\t// in\n    tag_90:\n        /* \"#utility.yul\":1397:1400   */\n      dup3\n        /* \"#utility.yul\":1390:1427   */\n      mstore\n        /* \"#utility.yul\":1315:1433   */\n      pop\n      pop\n      jump\t// out\n        /* \"#utility.yul\":1439:1661   */\n    tag_17:\n        /* \"#utility.yul\":1532:1536   */\n      0x00\n        /* \"#utility.yul\":1570:1572   */\n      0x20\n        /* \"#utility.yul\":1559:1568   */\n      dup3\n        /* \"#utility.yul\":1555:1573   */\n      add\n        /* \"#utility.yul\":1547:1573   */\n      swap1\n      pop\n        /* \"#utility.yul\":1583:1654   */\n      tag_92\n        /* \"#utility.yul\":1651:1652   */\n      0x00\n        /* \"#utility.yul\":1640:1649   */\n      dup4\n        /* \"#utility.yul\":1636:1653   */\n      add\n        /* \"#utility.yul\":1627:1633   */\n      dup5\n        /* \"#utility.yul\":1583:1654   */\n      tag_60\n      jump\t// in\n    tag_92:\n        /* \"#utility.yul\":1439:1661   */\n      swap3\n      swap2\n      pop\n      pop\n      jump\t// out\n        /* \"#utility.yul\":1667:1757   */\n    tag_61:\n        /* \"#utility.yul\":1701:1708   */\n      0x00\n        /* \"#utility.yul\":1744:1749   */\n      dup2\n        /* \"#utility.yul\":1737:1750   */\n      iszero\n        /* \"#utility.yul\":1730:1751   */\n      iszero\n        /* \"#utility.yul\":1719:1751   */\n      swap1\n      pop\n        /* \"#utility.yul\":1667:1757   */\n      swap2\n      swap1\n      pop\n      jump\t// out\n        /* \"#utility.yul\":1763:1879   */\n    tag_62:\n        /* \"#utility.yul\":1833:1854   */\n      tag_95\n        /* \"#utility.yul\":1848:1853   */\n      dup2\n        /* \"#utility.yul\":1833:1854   */\n      tag_61\n      jump\t// in\n    tag_95:\n        /* \"#utility.yul\":1826:1831   */\n      dup2\n        /* \"#utility.yul\":1823:1855   */\n      eq\n        /* \"#utility.yul\":1813:1873   */\n      tag_96\n      jumpi\n        /* \"#utility.yul\":1869:1870   */\n      0x00\n        /* \"#utility.yul\":1866:1867   */\n      dup1\n        /* \"#utility.yul\":1859:1871   */\n      revert\n        /* \"#utility.yul\":1813:1873   */\n    tag_96:\n        /* \"#utility.yul\":1763:1879   */\n      pop\n      jump\t// out\n        /* \"#utility.yul\":1885:2018   */\n    tag_63:\n        /* \"#utility.yul\":1928:1933   */\n      0x00\n        /* \"#utility.yul\":1966:1972   */\n      dup2\n        /* \"#utility.yul\":1953:1973   */\n      calldataload\n        /* \"#utility.yul\":1944:1973   */\n      swap1\n      pop\n        /* \"#utility.yul\":1982:2012   */\n      tag_98\n        /* \"#utility.yul\":2006:2011   */\n      dup2\n        /* \"#utility.yul\":1982:2012   */\n      tag_62\n      jump\t// in\n    tag_98:\n        /* \"#utility.yul\":1885:2018   */\n      swap3\n      swap2\n      pop\n      pop\n      jump\t// out\n        /* \"#utility.yul\":2024:2347   */\n    tag_21:\n        /* \"#utility.yul\":2080:2086   */\n      0x00\n        /* \"#utility.yul\":2129:2131   */\n      0x20\n        /* \"#utility.yul\":2117:2126   */\n      dup3\n        /* \"#utility.yul\":2108:2115   */\n      dup5\n        /* \"#utility.yul\":2104:2127   */\n      sub\n        /* \"#utility.yul\":2100:2132   */\n      slt\n        /* \"#utility.yul\":2097:2216   */\n      iszero\n      tag_100\n      jumpi\n        /* \"#utility.yul\":2135:2214   */\n      tag_101\n      tag_53\n      jump\t// in\n    tag_101:\n        /* \"#utility.yul\":2097:2216   */\n    tag_100:\n        /* \"#utility.yul\":2255:2256   */\n      0x00\n        /* \"#utility.yul\":2280:2330   */\n      tag_102\n        /* \"#utility.yul\":2322:2329   */\n      dup5\n        /* \"#utility.yul\":2313:2319   */\n      dup3\n        /* \"#utility.yul\":2302:2311   */\n      dup6\n        /* \"#utility.yul\":2298:2320   */\n      add\n        /* \"#utility.yul\":2280:2330   */\n      tag_63\n      jump\t// in\n    tag_102:\n        /* \"#utility.yul\":2270:2330   */\n      swap2\n      pop\n        /* \"#utility.yul\":2226:2340   */\n      pop\n        /* \"#utility.yul\":2024:2347   */\n      swap3\n      swap2\n      pop\n      pop\n      jump\t// out\n        /* \"#utility.yul\":2353:2462   */\n    tag_64:\n        /* \"#utility.yul\":2434:2455   */\n      tag_104\n        /* \"#utility.yul\":2449:2454   */\n      dup2\n        /* \"#utility.yul\":2434:2455   */\n      tag_61\n      jump\t// in\n    tag_104:\n        /* \"#utility.yul\":2429:2432   */\n      dup3\n        /* \"#utility.yul\":2422:2456   */\n      mstore\n        /* \"#utility.yul\":2353:2462   */\n      pop\n      pop\n      jump\t// out\n        /* \"#utility.yul\":2468:2678   */\n    tag_31:\n        /* \"#utility.yul\":2555:2559   */\n      0x00\n        /* \"#utility.yul\":2593:2595   */\n      0x20\n        /* \"#utility.yul\":2582:2591   */\n      dup3\n        /* \"#utility.yul\":2578:2596   */\n      add\n        /* \"#utility.yul\":2570:2596   */\n      swap1\n      pop\n        /* \"#utility.yul\":2606:2671   */\n      tag_106\n        /* \"#utility.yul\":2668:2669   */\n      0x00\n        /* \"#utility.yul\":2657:2666   */\n      dup4\n        /* \"#utility.yul\":2653:2670   */\n      add\n        /* \"#utility.yul\":2644:2650   */\n      dup5\n        /* \"#utility.yul\":2606:2671   */\n      tag_64\n      jump\t// in\n    tag_106:\n        /* \"#utility.yul\":2468:2678   */\n      swap3\n      swap2\n      pop\n      pop\n      jump\t// out\n        /* \"#utility.yul\":2684:2853   */\n    tag_65:\n        /* \"#utility.yul\":2768:2779   */\n      0x00\n        /* \"#utility.yul\":2802:2808   */\n      dup3\n        /* \"#utility.yul\":2797:2800   */\n      dup3\n        /* \"#utility.yul\":2790:2809   */\n      mstore\n        /* \"#utility.yul\":2842:2846   */\n      0x20\n        /* \"#utility.yul\":2837:2840   */\n      dup3\n        /* \"#utility.yul\":2833:2847   */\n      add\n        /* \"#utility.yul\":2818:2847   */\n      swap1\n      pop\n        /* \"#utility.yul\":2684:2853   */\n      swap3\n      swap2\n      pop\n      pop\n      jump\t// out\n        /* \"#utility.yul\":2859:3027   */\n    tag_66:\n        /* \"#utility.yul\":2999:3019   */\n      0x436f6e7472616374206973207061757365640000000000000000000000000000\n        /* \"#utility.yul\":2995:2996   */\n      0x00\n        /* \"#utility.yul\":2987:2993   */\n      dup3\n        /* \"#utility.yul\":2983:2997   */\n      add\n        /* \"#utility.yul\":2976:3020   */\n      mstore\n        /* \"#utility.yul\":2859:3027   */\n      pop\n      jump\t// out\n        /* \"#utility.yul\":3033:3399   */\n    tag_67:\n        /* \"#utility.yul\":3175:3178   */\n      0x00\n        /* \"#utility.yul\":3196:3263   */\n      tag_110\n        /* \"#utility.yul\":3260:3262   */\n      0x12\n        /* \"#utility.yul\":3255:3258   */\n      dup4\n        /* \"#utility.yul\":3196:3263   */\n      tag_65\n      jump\t// in\n    tag_110:\n        /* \"#utility.yul\":3189:3263   */\n      swap2\n      pop\n        /* \"#utility.yul\":3272:3365   */\n      tag_111\n        /* \"#utility.yul\":3361:3364   */\n      dup3\n        /* \"#utility.yul\":3272:3365   */\n      tag_66\n      jump\t// in\n    tag_111:\n        /* \"#utility.yul\":3390:3392   */\n      0x20\n        /* \"#utility.yul\":3385:3388   */\n      dup3\n        /* \"#utility.yul\":3381:3393   */\n      add\n        /* \"#utility.yul\":3374:3393   */\n      swap1\n      pop\n        /* \"#utility.yul\":3033:3399   */\n      swap2\n      swap1\n      pop\n      jump\t// out\n        /* \"#utility.yul\":3405:3824   */\n    tag_37:\n        /* \"#utility.yul\":3571:3575   */\n      0x00\n        /* \"#utility.yul\":3609:3611   */\n      0x20\n        /* \"#utility.yul\":3598:3607   */\n      dup3\n        /* \"#utility.yul\":3594:3612   */\n      add\n        /* \"#utility.yul\":3586:3612   */\n      swap1\n      pop\n        /* \"#utility.yul\":3658:3667   */\n      dup2\n        /* \"#utility.yul\":3652:3656   */\n      dup2\n        /* \"#utility.yul\":3648:3668   */\n      sub\n        /* \"#utility.yul\":3644:3645   */\n      0x00\n        /* \"#utility.yul\":3633:3642   */\n      dup4\n        /* \"#utility.yul\":3629:3646   */\n      add\n        /* \"#utility.yul\":3622:3669   */\n      mstore\n        /* \"#utility.yul\":3686:3817   */\n      tag_113\n        /* \"#utility.yul\":3812:3816   */\n      dup2\n        /* \"#utility.yul\":3686:3817   */\n      tag_67\n      jump\t// in\n    tag_113:\n        /* \"#utility.yul\":3678:3817   */\n      swap1\n      pop\n        /* \"#utility.yul\":3405:3824   */\n      swap2\n      swap1\n      pop\n      jump\t// out\n        /* \"#utility.yul\":3830:4002   */\n    tag_68:\n        /* \"#utility.yul\":3970:3994   */\n      0x20596f7520617265206e6f7420746865206f776e657200000000000000000000\n        /* \"#utility.yul\":3966:3967   */\n      0x00\n        /* \"#utility.yul\":3958:3964   */\n      dup3\n        /* \"#utility.yul\":3954:3968   */\n      add\n        /* \"#utility.yul\":3947:3995   */\n      mstore\n        /* \"#utility.yul\":3830:4002   */\n      pop\n      jump\t// out\n        /* \"#utility.yul\":4008:4374   */\n    tag_69:\n        /* \"#utility.yul\":4150:4153   */\n      0x00\n        /* \"#utility.yul\":4171:4238   */\n      tag_116\n        /* \"#utility.yul\":4235:4237   */\n      0x16\n        /* \"#utility.yul\":4230:4233   */\n      dup4\n        /* \"#utility.yul\":4171:4238   */\n      tag_65\n      jump\t// in\n    tag_116:\n        /* \"#utility.yul\":4164:4238   */\n      swap2\n      pop\n        /* \"#utility.yul\":4247:4340   */\n      tag_117\n        /* \"#utility.yul\":4336:4339   */\n      dup3\n        /* \"#utility.yul\":4247:4340   */\n      tag_68\n      jump\t// in\n    tag_117:\n        /* \"#utility.yul\":4365:4367   */\n      0x20\n        /* \"#utility.yul\":4360:4363   */\n      dup3\n        /* \"#utility.yul\":4356:4368   */\n      add\n        /* \"#utility.yul\":4349:4368   */\n      swap1\n      pop\n        /* \"#utility.yul\":4008:4374   */\n      swap2\n      swap1\n      pop\n      jump\t// out\n        /* \"#utility.yul\":4380:4799   */\n    tag_40:\n        /* \"#utility.yul\":4546:4550   */\n      0x00\n        /* \"#utility.yul\":4584:4586   */\n      0x20\n        /* \"#utility.yul\":4573:4582   */\n      dup3\n        /* \"#utility.yul\":4569:4587   */\n      add\n        /* \"#utility.yul\":4561:4587   */\n      swap1\n      pop\n        /* \"#utility.yul\":4633:4642   */\n      dup2\n        /* \"#utility.yul\":4627:4631   */\n      dup2\n        /* \"#utility.yul\":4623:4643   */\n      sub\n        /* \"#utility.yul\":4619:4620   */\n      0x00\n        /* \"#utility.yul\":4608:4617   */\n      dup4\n        /* \"#utility.yul\":4604:4621   */\n      add\n        /* \"#utility.yul\":4597:4644   */\n      mstore\n        /* \"#utility.yul\":4661:4792   */\n      tag_119\n        /* \"#utility.yul\":4787:4791   */\n      dup2\n        /* \"#utility.yul\":4661:4792   */\n      tag_69\n      jump\t// in\n    tag_119:\n        /* \"#utility.yul\":4653:4792   */\n      swap1\n      pop\n        /* \"#utility.yul\":4380:4799   */\n      swap2\n      swap1\n      pop\n      jump\t// out\n        /* \"#utility.yul\":4805:4979   */\n    tag_70:\n        /* \"#utility.yul\":4945:4971   */\n      0x20796f7520617265206e6f7420746865206f776e657220330000000000000000\n        /* \"#utility.yul\":4941:4942   */\n      0x00\n        /* \"#utility.yul\":4933:4939   */\n      dup3\n        /* \"#utility.yul\":4929:4943   */\n      add\n        /* \"#utility.yul\":4922:4972   */\n      mstore\n        /* \"#utility.yul\":4805:4979   */\n      pop\n      jump\t// out\n        /* \"#utility.yul\":4985:5351   */\n    tag_71:\n        /* \"#utility.yul\":5127:5130   */\n      0x00\n        /* \"#utility.yul\":5148:5215   */\n      tag_122\n        /* \"#utility.yul\":5212:5214   */\n      0x18\n        /* \"#utility.yul\":5207:5210   */\n      dup4\n        /* \"#utility.yul\":5148:5215   */\n      tag_65\n      jump\t// in\n    tag_122:\n        /* \"#utility.yul\":5141:5215   */\n      swap2\n      pop\n        /* \"#utility.yul\":5224:5317   */\n      tag_123\n        /* \"#utility.yul\":5313:5316   */\n      dup3\n        /* \"#utility.yul\":5224:5317   */\n      tag_70\n      jump\t// in\n    tag_123:\n        /* \"#utility.yul\":5342:5344   */\n      0x20\n        /* \"#utility.yul\":5337:5340   */\n      dup3\n        /* \"#utility.yul\":5333:5345   */\n      add\n        /* \"#utility.yul\":5326:5345   */\n      swap1\n      pop\n        /* \"#utility.yul\":4985:5351   */\n      swap2\n      swap1\n      pop\n      jump\t// out\n        /* \"#utility.yul\":5357:5776   */\n    tag_50:\n        /* \"#utility.yul\":5523:5527   */\n      0x00\n        /* \"#utility.yul\":5561:5563   */\n      0x20\n        /* \"#utility.yul\":5550:5559   */\n      dup3\n        /* \"#utility.yul\":5546:5564   */\n      add\n        /* \"#utility.yul\":5538:5564   */\n      swap1\n      pop\n        /* \"#utility.yul\":5610:5619   */\n      dup2\n        /* \"#utility.yul\":5604:5608   */\n      dup2\n        /* \"#utility.yul\":5600:5620   */\n      sub\n        /* \"#utility.yul\":5596:5597   */\n      0x00\n        /* \"#utility.yul\":5585:5594   */\n      dup4\n        /* \"#utility.yul\":5581:5598   */\n      add\n        /* \"#utility.yul\":5574:5621   */\n      mstore\n        /* \"#utility.yul\":5638:5769   */\n      tag_125\n        /* \"#utility.yul\":5764:5768   */\n      dup2\n        /* \"#utility.yul\":5638:5769   */\n      tag_71\n      jump\t// in\n    tag_125:\n        /* \"#utility.yul\":5630:5769   */\n      swap1\n      pop\n        /* \"#utility.yul\":5357:5776   */\n      swap2\n      swap1\n      pop\n      jump\t// out\n\n    auxdata: 0xa2646970667358221220645633edfabb6b3091208f91e8ab363d28ae3cbdecd3ea8dbff21c1b8c9a8a3364736f6c63430008110033\n}\n",
				"bytecode": {
					"linkReferences": {},
					"object": "608060405234801561001057600080fd5b50336000806101000a81548173ffffffffffffffffffffffffffffffffffffffff021916908373ffffffffffffffffffffffffffffffffffffffff1602179055506106aa806100606000396000f3fe6080604052600436106100555760003560e01c80630adec93c1461005a57806312065fe01461008357806316c38b3c146100ae57806339df43ff146100d75780635c975abb14610100578063cbedbf5a1461012b575b600080fd5b34801561006657600080fd5b50610081600480360381019061007c919061042f565b610135565b005b34801561008f57600080fd5b5061009861025d565b6040516100a59190610475565b60405180910390f35b3480156100ba57600080fd5b506100d560048036038101906100d091906104c8565b610265565b005b3480156100e357600080fd5b506100fe60048036038101906100f9919061042f565b610310565b005b34801561010c57600080fd5b506101156103b7565b6040516101229190610504565b60405180910390f35b6101336103ca565b005b600060149054906101000a900460ff1615610185576040517f08c379a000000000000000000000000000000000000000000000000000000000815260040161017c9061057c565b60405180910390fd5b60008054906101000a900473ffffffffffffffffffffffffffffffffffffffff1673ffffffffffffffffffffffffffffffffffffffff163373ffffffffffffffffffffffffffffffffffffffff1614610213576040517f08c379a000000000000000000000000000000000000000000000000000000000815260040161020a906105e8565b60405180910390fd5b8073ffffffffffffffffffffffffffffffffffffffff166108fc479081150290604051600060405180830381858888f19350505050158015610259573d6000803e3d6000fd5b5050565b600047905090565b60008054906101000a900473ffffffffffffffffffffffffffffffffffffffff1673ffffffffffffffffffffffffffffffffffffffff163373ffffffffffffffffffffffffffffffffffffffff16146102f3576040517f08c379a00000000000000000000000000000000000000000000000000000000081526004016102ea906105e8565b60405180910390fd5b80600060146101000a81548160ff02191690831515021790555050565b60008054906101000a900473ffffffffffffffffffffffffffffffffffffffff1673ffffffffffffffffffffffffffffffffffffffff163373ffffffffffffffffffffffffffffffffffffffff161461039e576040517f08c379a000000000000000000000000000000000000000000000000000000000815260040161039590610654565b60405180910390fd5b8073ffffffffffffffffffffffffffffffffffffffff16ff5b600060149054906101000a900460ff1681565b565b600080fd5b600073ffffffffffffffffffffffffffffffffffffffff82169050919050565b60006103fc826103d1565b9050919050565b61040c816103f1565b811461041757600080fd5b50565b60008135905061042981610403565b92915050565b600060208284031215610445576104446103cc565b5b60006104538482850161041a565b91505092915050565b6000819050919050565b61046f8161045c565b82525050565b600060208201905061048a6000830184610466565b92915050565b60008115159050919050565b6104a581610490565b81146104b057600080fd5b50565b6000813590506104c28161049c565b92915050565b6000602082840312156104de576104dd6103cc565b5b60006104ec848285016104b3565b91505092915050565b6104fe81610490565b82525050565b600060208201905061051960008301846104f5565b92915050565b600082825260208201905092915050565b7f436f6e7472616374206973207061757365640000000000000000000000000000600082015250565b600061056660128361051f565b915061057182610530565b602082019050919050565b6000602082019050818103600083015261059581610559565b9050919050565b7f20596f7520617265206e6f7420746865206f776e657200000000000000000000600082015250565b60006105d260168361051f565b91506105dd8261059c565b602082019050919050565b60006020820190508181036000830152610601816105c5565b9050919050565b7f20796f7520617265206e6f7420746865206f776e657220330000000000000000600082015250565b600061063e60188361051f565b915061064982610608565b602082019050919050565b6000602082019050818103600083015261066d81610631565b905091905056fea2646970667358221220645633edfabb6b3091208f91e8ab363d28ae3cbdecd3ea8dbff21c1b8c9a8a3364736f6c63430008110033",
					"opcodes": "PUSH1 0x80 PUSH1 0x40 MSTORE CALLVALUE DUP1 ISZERO PUSH2 0x10 JUMPI PUSH1 0x0 DUP1 REVERT JUMPDEST POP CALLER PUSH1 0x0 DUP1 PUSH2 0x100 EXP DUP2 SLOAD DUP2 PUSH20 0xFFFFFFFFFFFFFFFFFFFFFFFFFFFFFFFFFFFFFFFF MUL NOT AND SWAP1 DUP4 PUSH20 0xFFFFFFFFFFFFFFFFFFFFFFFFFFFFFFFFFFFFFFFF AND MUL OR SWAP1 SSTORE POP PUSH2 0x6AA DUP1 PUSH2 0x60 PUSH1 0x0 CODECOPY PUSH1 0x0 RETURN INVALID PUSH1 0x80 PUSH1 0x40 MSTORE PUSH1 0x4 CALLDATASIZE LT PUSH2 0x55 JUMPI PUSH1 0x0 CALLDATALOAD PUSH1 0xE0 SHR DUP1 PUSH4 0xADEC93C EQ PUSH2 0x5A JUMPI DUP1 PUSH4 0x12065FE0 EQ PUSH2 0x83 JUMPI DUP1 PUSH4 0x16C38B3C EQ PUSH2 0xAE JUMPI DUP1 PUSH4 0x39DF43FF EQ PUSH2 0xD7 JUMPI DUP1 PUSH4 0x5C975ABB EQ PUSH2 0x100 JUMPI DUP1 PUSH4 0xCBEDBF5A EQ PUSH2 0x12B JUMPI JUMPDEST PUSH1 0x0 DUP1 REVERT JUMPDEST CALLVALUE DUP1 ISZERO PUSH2 0x66 JUMPI PUSH1 0x0 DUP1 REVERT JUMPDEST POP PUSH2 0x81 PUSH1 0x4 DUP1 CALLDATASIZE SUB DUP2 ADD SWAP1 PUSH2 0x7C SWAP2 SWAP1 PUSH2 0x42F JUMP JUMPDEST PUSH2 0x135 JUMP JUMPDEST STOP JUMPDEST CALLVALUE DUP1 ISZERO PUSH2 0x8F JUMPI PUSH1 0x0 DUP1 REVERT JUMPDEST POP PUSH2 0x98 PUSH2 0x25D JUMP JUMPDEST PUSH1 0x40 MLOAD PUSH2 0xA5 SWAP2 SWAP1 PUSH2 0x475 JUMP JUMPDEST PUSH1 0x40 MLOAD DUP1 SWAP2 SUB SWAP1 RETURN JUMPDEST CALLVALUE DUP1 ISZERO PUSH2 0xBA JUMPI PUSH1 0x0 DUP1 REVERT JUMPDEST POP PUSH2 0xD5 PUSH1 0x4 DUP1 CALLDATASIZE SUB DUP2 ADD SWAP1 PUSH2 0xD0 SWAP2 SWAP1 PUSH2 0x4C8 JUMP JUMPDEST PUSH2 0x265 JUMP JUMPDEST STOP JUMPDEST CALLVALUE DUP1 ISZERO PUSH2 0xE3 JUMPI PUSH1 0x0 DUP1 REVERT JUMPDEST POP PUSH2 0xFE PUSH1 0x4 DUP1 CALLDATASIZE SUB DUP2 ADD SWAP1 PUSH2 0xF9 SWAP2 SWAP1 PUSH2 0x42F JUMP JUMPDEST PUSH2 0x310 JUMP JUMPDEST STOP JUMPDEST CALLVALUE DUP1 ISZERO PUSH2 0x10C JUMPI PUSH1 0x0 DUP1 REVERT JUMPDEST POP PUSH2 0x115 PUSH2 0x3B7 JUMP JUMPDEST PUSH1 0x40 MLOAD PUSH2 0x122 SWAP2 SWAP1 PUSH2 0x504 JUMP JUMPDEST PUSH1 0x40 MLOAD DUP1 SWAP2 SUB SWAP1 RETURN JUMPDEST PUSH2 0x133 PUSH2 0x3CA JUMP JUMPDEST STOP JUMPDEST PUSH1 0x0 PUSH1 0x14 SWAP1 SLOAD SWAP1 PUSH2 0x100 EXP SWAP1 DIV PUSH1 0xFF AND ISZERO PUSH2 0x185 JUMPI PUSH1 0x40 MLOAD PUSH32 0x8C379A000000000000000000000000000000000000000000000000000000000 DUP2 MSTORE PUSH1 0x4 ADD PUSH2 0x17C SWAP1 PUSH2 0x57C JUMP JUMPDEST PUSH1 0x40 MLOAD DUP1 SWAP2 SUB SWAP1 REVERT JUMPDEST PUSH1 0x0 DUP1 SLOAD SWAP1 PUSH2 0x100 EXP SWAP1 DIV PUSH20 0xFFFFFFFFFFFFFFFFFFFFFFFFFFFFFFFFFFFFFFFF AND PUSH20 0xFFFFFFFFFFFFFFFFFFFFFFFFFFFFFFFFFFFFFFFF AND CALLER PUSH20 0xFFFFFFFFFFFFFFFFFFFFFFFFFFFFFFFFFFFFFFFF AND EQ PUSH2 0x213 JUMPI PUSH1 0x40 MLOAD PUSH32 0x8C379A000000000000000000000000000000000000000000000000000000000 DUP2 MSTORE PUSH1 0x4 ADD PUSH2 0x20A SWAP1 PUSH2 0x5E8 JUMP JUMPDEST PUSH1 0x40 MLOAD DUP1 SWAP2 SUB SWAP1 REVERT JUMPDEST DUP1 PUSH20 0xFFFFFFFFFFFFFFFFFFFFFFFFFFFFFFFFFFFFFFFF AND PUSH2 0x8FC SELFBALANCE SWAP1 DUP2 ISZERO MUL SWAP1 PUSH1 0x40 MLOAD PUSH1 0x0 PUSH1 0x40 MLOAD DUP1 DUP4 SUB DUP2 DUP6 DUP9 DUP9 CALL SWAP4 POP POP POP POP ISZERO DUP1 ISZERO PUSH2 0x259 JUMPI RETURNDATASIZE PUSH1 0x0 DUP1 RETURNDATACOPY RETURNDATASIZE PUSH1 0x0 REVERT JUMPDEST POP POP JUMP JUMPDEST PUSH1 0x0 SELFBALANCE SWAP1 POP SWAP1 JUMP JUMPDEST PUSH1 0x0 DUP1 SLOAD SWAP1 PUSH2 0x100 EXP SWAP1 DIV PUSH20 0xFFFFFFFFFFFFFFFFFFFFFFFFFFFFFFFFFFFFFFFF AND PUSH20 0xFFFFFFFFFFFFFFFFFFFFFFFFFFFFFFFFFFFFFFFF AND CALLER PUSH20 0xFFFFFFFFFFFFFFFFFFFFFFFFFFFFFFFFFFFFFFFF AND EQ PUSH2 0x2F3 JUMPI PUSH1 0x40 MLOAD PUSH32 0x8C379A000000000000000000000000000000000000000000000000000000000 DUP2 MSTORE PUSH1 0x4 ADD PUSH2 0x2EA SWAP1 PUSH2 0x5E8 JUMP JUMPDEST PUSH1 0x40 MLOAD DUP1 SWAP2 SUB SWAP1 REVERT JUMPDEST DUP1 PUSH1 0x0 PUSH1 0x14 PUSH2 0x100 EXP DUP2 SLOAD DUP2 PUSH1 0xFF MUL NOT AND SWAP1 DUP4 ISZERO ISZERO MUL OR SWAP1 SSTORE POP POP JUMP JUMPDEST PUSH1 0x0 DUP1 SLOAD SWAP1 PUSH2 0x100 EXP SWAP1 DIV PUSH20 0xFFFFFFFFFFFFFFFFFFFFFFFFFFFFFFFFFFFFFFFF AND PUSH20 0xFFFFFFFFFFFFFFFFFFFFFFFFFFFFFFFFFFFFFFFF AND CALLER PUSH20 0xFFFFFFFFFFFFFFFFFFFFFFFFFFFFFFFFFFFFFFFF AND EQ PUSH2 0x39E JUMPI PUSH1 0x40 MLOAD PUSH32 0x8C379A000000000000000000000000000000000000000000000000000000000 DUP2 MSTORE PUSH1 0x4 ADD PUSH2 0x395 SWAP1 PUSH2 0x654 JUMP JUMPDEST PUSH1 0x40 MLOAD DUP1 SWAP2 SUB SWAP1 REVERT JUMPDEST DUP1 PUSH20 0xFFFFFFFFFFFFFFFFFFFFFFFFFFFFFFFFFFFFFFFF AND SELFDESTRUCT JUMPDEST PUSH1 0x0 PUSH1 0x14 SWAP1 SLOAD SWAP1 PUSH2 0x100 EXP SWAP1 DIV PUSH1 0xFF AND DUP2 JUMP JUMPDEST JUMP JUMPDEST PUSH1 0x0 DUP1 REVERT JUMPDEST PUSH1 0x0 PUSH20 0xFFFFFFFFFFFFFFFFFFFFFFFFFFFFFFFFFFFFFFFF DUP3 AND SWAP1 POP SWAP2 SWAP1 POP JUMP JUMPDEST PUSH1 0x0 PUSH2 0x3FC DUP3 PUSH2 0x3D1 JUMP JUMPDEST SWAP1 POP SWAP2 SWAP1 POP JUMP JUMPDEST PUSH2 0x40C DUP2 PUSH2 0x3F1 JUMP JUMPDEST DUP2 EQ PUSH2 0x417 JUMPI PUSH1 0x0 DUP1 REVERT JUMPDEST POP JUMP JUMPDEST PUSH1 0x0 DUP2 CALLDATALOAD SWAP1 POP PUSH2 0x429 DUP2 PUSH2 0x403 JUMP JUMPDEST SWAP3 SWAP2 POP POP JUMP JUMPDEST PUSH1 0x0 PUSH1 0x20 DUP3 DUP5 SUB SLT ISZERO PUSH2 0x445 JUMPI PUSH2 0x444 PUSH2 0x3CC JUMP JUMPDEST JUMPDEST PUSH1 0x0 PUSH2 0x453 DUP5 DUP3 DUP6 ADD PUSH2 0x41A JUMP JUMPDEST SWAP2 POP POP SWAP3 SWAP2 POP POP JUMP JUMPDEST PUSH1 0x0 DUP2 SWAP1 POP SWAP2 SWAP1 POP JUMP JUMPDEST PUSH2 0x46F DUP2 PUSH2 0x45C JUMP JUMPDEST DUP3 MSTORE POP POP JUMP JUMPDEST PUSH1 0x0 PUSH1 0x20 DUP3 ADD SWAP1 POP PUSH2 0x48A PUSH1 0x0 DUP4 ADD DUP5 PUSH2 0x466 JUMP JUMPDEST SWAP3 SWAP2 POP POP JUMP JUMPDEST PUSH1 0x0 DUP2 ISZERO ISZERO SWAP1 POP SWAP2 SWAP1 POP JUMP JUMPDEST PUSH2 0x4A5 DUP2 PUSH2 0x490 JUMP JUMPDEST DUP2 EQ PUSH2 0x4B0 JUMPI PUSH1 0x0 DUP1 REVERT JUMPDEST POP JUMP JUMPDEST PUSH1 0x0 DUP2 CALLDATALOAD SWAP1 POP PUSH2 0x4C2 DUP2 PUSH2 0x49C JUMP JUMPDEST SWAP3 SWAP2 POP POP JUMP JUMPDEST PUSH1 0x0 PUSH1 0x20 DUP3 DUP5 SUB SLT ISZERO PUSH2 0x4DE JUMPI PUSH2 0x4DD PUSH2 0x3CC JUMP JUMPDEST JUMPDEST PUSH1 0x0 PUSH2 0x4EC DUP5 DUP3 DUP6 ADD PUSH2 0x4B3 JUMP JUMPDEST SWAP2 POP POP SWAP3 SWAP2 POP POP JUMP JUMPDEST PUSH2 0x4FE DUP2 PUSH2 0x490 JUMP JUMPDEST DUP3 MSTORE POP POP JUMP JUMPDEST PUSH1 0x0 PUSH1 0x20 DUP3 ADD SWAP1 POP PUSH2 0x519 PUSH1 0x0 DUP4 ADD DUP5 PUSH2 0x4F5 JUMP JUMPDEST SWAP3 SWAP2 POP POP JUMP JUMPDEST PUSH1 0x0 DUP3 DUP3 MSTORE PUSH1 0x20 DUP3 ADD SWAP1 POP SWAP3 SWAP2 POP POP JUMP JUMPDEST PUSH32 0x436F6E7472616374206973207061757365640000000000000000000000000000 PUSH1 0x0 DUP3 ADD MSTORE POP JUMP JUMPDEST PUSH1 0x0 PUSH2 0x566 PUSH1 0x12 DUP4 PUSH2 0x51F JUMP JUMPDEST SWAP2 POP PUSH2 0x571 DUP3 PUSH2 0x530 JUMP JUMPDEST PUSH1 0x20 DUP3 ADD SWAP1 POP SWAP2 SWAP1 POP JUMP JUMPDEST PUSH1 0x0 PUSH1 0x20 DUP3 ADD SWAP1 POP DUP2 DUP2 SUB PUSH1 0x0 DUP4 ADD MSTORE PUSH2 0x595 DUP2 PUSH2 0x559 JUMP JUMPDEST SWAP1 POP SWAP2 SWAP1 POP JUMP JUMPDEST PUSH32 0x20596F7520617265206E6F7420746865206F776E657200000000000000000000 PUSH1 0x0 DUP3 ADD MSTORE POP JUMP JUMPDEST PUSH1 0x0 PUSH2 0x5D2 PUSH1 0x16 DUP4 PUSH2 0x51F JUMP JUMPDEST SWAP2 POP PUSH2 0x5DD DUP3 PUSH2 0x59C JUMP JUMPDEST PUSH1 0x20 DUP3 ADD SWAP1 POP SWAP2 SWAP1 POP JUMP JUMPDEST PUSH1 0x0 PUSH1 0x20 DUP3 ADD SWAP1 POP DUP2 DUP2 SUB PUSH1 0x0 DUP4 ADD MSTORE PUSH2 0x601 DUP2 PUSH2 0x5C5 JUMP JUMPDEST SWAP1 POP SWAP2 SWAP1 POP JUMP JUMPDEST PUSH32 0x20796F7520617265206E6F7420746865206F776E657220330000000000000000 PUSH1 0x0 DUP3 ADD MSTORE POP JUMP JUMPDEST PUSH1 0x0 PUSH2 0x63E PUSH1 0x18 DUP4 PUSH2 0x51F JUMP JUMPDEST SWAP2 POP PUSH2 0x649 DUP3 PUSH2 0x608 JUMP JUMPDEST PUSH1 0x20 DUP3 ADD SWAP1 POP SWAP2 SWAP1 POP JUMP JUMPDEST PUSH1 0x0 PUSH1 0x20 DUP3 ADD SWAP1 POP DUP2 DUP2 SUB PUSH1 0x0 DUP4 ADD MSTORE PUSH2 0x66D DUP2 PUSH2 0x631 JUMP JUMPDEST SWAP1 POP SWAP2 SWAP1 POP JUMP INVALID LOG2 PUSH5 0x6970667358 0x22 SLT KECCAK256 PUSH5 0x5633EDFABB PUSH12 0x3091208F91E8AB363D28AE3C 0xBD 0xEC 0xD3 0xEA DUP14 0xBF CALLCODE SHR SHL DUP13 SWAP11 DUP11 CALLER PUSH5 0x736F6C6343 STOP ADDMOD GT STOP CALLER "
				},
				"gasEstimates": {
					"creation": {
						"codeDepositCost": "341200",
						"executionCost": "24646",
						"totalCost": "365846"
					},
					"external": {
						"destroySmartContract(address)": "30264",
						"getBalance()": "339",
						"paused()": "2587",
						"sendMoney()": "208",
						"setPaused(bool)": "26918",
						"withdrawAllMoney(address)": "infinite"
					}
				},
				"methodIdentifiers": {
					"destroySmartContract(address)": "39df43ff",
					"getBalance()": "12065fe0",
					"paused()": "5c975abb",
					"sendMoney()": "cbedbf5a",
					"setPaused(bool)": "16c38b3c",
					"withdrawAllMoney(address)": "0adec93c"
				}
			},
			"storageLayout": {
				"storage": [
					{
						"astId": 3,
						"contract": "StartStopUpdateExample.sol:test",
						"label": "owner",
						"offset": 0,
						"slot": "0",
						"type": "t_address"
					},
					{
						"astId": 5,
						"contract": "StartStopUpdateExample.sol:test",
						"label": "paused",
						"offset": 20,
						"slot": "0",
						"type": "t_bool"
					}
				],
				"types": {
					"t_address": {
						"encoding": "inplace",
						"label": "address",
						"numberOfBytes": "20"
					},
					"t_bool": {
						"encoding": "inplace",
						"label": "bool",
						"numberOfBytes": "1"
					}
				}
			},
			"userdoc": {
				"kind": "user",
				"methods": {},
				"version": 1
			}
		}
	}
}