{
	"SimpleWalletGitAllowanceRenounceOwner.sol": {
		"SimpleWalletGit2": {
			"abi": [
				{
					"anonymous": false,
					"inputs": [
						{
							"indexed": true,
							"internalType": "address",
							"name": "_forWho",
							"type": "address"
						},
						{
							"indexed": true,
							"internalType": "address",
							"name": "_fromWhom",
							"type": "address"
						},
						{
							"indexed": false,
							"internalType": "uint256",
							"name": "_oldAmount",
							"type": "uint256"
						},
						{
							"indexed": false,
							"internalType": "uint256",
							"name": "_newAmount",
							"type": "uint256"
						}
					],
					"name": "AllowanceChanged",
					"type": "event"
				},
				{
					"anonymous": false,
					"inputs": [
						{
							"indexed": true,
							"internalType": "address",
							"name": "previousOwner",
							"type": "address"
						},
						{
							"indexed": true,
							"internalType": "address",
							"name": "newOwner",
							"type": "address"
						}
					],
					"name": "OwnershipTransferred",
					"type": "event"
				},
				{
					"anonymous": false,
					"inputs": [
						{
							"indexed": true,
							"internalType": "address",
							"name": "_from",
							"type": "address"
						},
						{
							"indexed": false,
							"internalType": "uint256",
							"name": "_amount",
							"type": "uint256"
						}
					],
					"name": "moneyReceive",
					"type": "event"
				},
				{
					"anonymous": false,
					"inputs": [
						{
							"indexed": true,
							"internalType": "address",
							"name": "_beneficiary",
							"type": "address"
						},
						{
							"indexed": false,
							"internalType": "uint256",
							"name": "_amount",
							"type": "uint256"
						}
					],
					"name": "moneyWithdraw",
					"type": "event"
				},
				{
					"stateMutability": "payable",
					"type": "fallback"
				},
				{
					"inputs": [
						{
							"internalType": "address",
							"name": "_who",
							"type": "address"
						},
						{
							"internalType": "uint256",
							"name": "_amount",
							"type": "uint256"
						}
					],
					"name": "addAllowance",
					"outputs": [],
					"stateMutability": "nonpayable",
					"type": "function"
				},
				{
					"inputs": [
						{
							"internalType": "address",
							"name": "",
							"type": "address"
						}
					],
					"name": "allowance",
					"outputs": [
						{
							"internalType": "uint256",
							"name": "",
							"type": "uint256"
						}
					],
					"stateMutability": "view",
					"type": "function"
				},
				{
					"inputs": [],
					"name": "owner",
					"outputs": [
						{
							"internalType": "address",
							"name": "",
							"type": "address"
						}
					],
					"stateMutability": "view",
					"type": "function"
				},
				{
					"inputs": [],
					"name": "renounceOwnership",
					"outputs": [],
					"stateMutability": "nonpayable",
					"type": "function"
				},
				{
					"inputs": [
						{
							"internalType": "address",
							"name": "newOwner",
							"type": "address"
						}
					],
					"name": "transferOwnership",
					"outputs": [],
					"stateMutability": "nonpayable",
					"type": "function"
				},
				{
					"inputs": [
						{
							"internalType": "address payable",
							"name": "_to",
							"type": "address"
						},
						{
							"internalType": "uint256",
							"name": "_amount",
							"type": "uint256"
						}
					],
					"name": "withDrawMoney",
					"outputs": [],
					"stateMutability": "nonpayable",
					"type": "function"
				}
			],
			"devdoc": {
				"kind": "dev",
				"methods": {
					"owner()": {
						"details": "Returns the address of the current owner."
					},
					"renounceOwnership()": {
						"details": "Leaves the contract without owner. It will not be possible to call `onlyOwner` functions anymore. Can only be called by the current owner. NOTE: Renouncing ownership will leave the contract without an owner, thereby removing any functionality that is only available to the owner."
					},
					"transferOwnership(address)": {
						"details": "Transfers ownership of the contract to a new account (`newOwner`). Can only be called by the current owner."
					}
				},
				"version": 1
			},
			"evm": {
				"assembly": "    /* \"SimpleWalletGitAllowanceRenounceOwner.sol\":64:977  contract SimpleWalletGit2 is Allowance {\r... */\n  mstore(0x40, 0x80)\n  callvalue\n  dup1\n  iszero\n  tag_1\n  jumpi\n  0x00\n  dup1\n  revert\ntag_1:\n  pop\n    /* \"https://github.com/OpenZeppelin/openzeppelin-contracts/blob/master/contracts/access/Ownable.sol\":936:968  _transferOwnership(_msgSender()) */\n  tag_4\n    /* \"https://github.com/OpenZeppelin/openzeppelin-contracts/blob/master/contracts/access/Ownable.sol\":955:967  _msgSender() */\n  tag_5\n    /* \"https://github.com/OpenZeppelin/openzeppelin-contracts/blob/master/contracts/access/Ownable.sol\":955:965  _msgSender */\n  shl(0x20, tag_6)\n    /* \"https://github.com/OpenZeppelin/openzeppelin-contracts/blob/master/contracts/access/Ownable.sol\":955:967  _msgSender() */\n  0x20\n  shr\n  jump\t// in\ntag_5:\n    /* \"https://github.com/OpenZeppelin/openzeppelin-contracts/blob/master/contracts/access/Ownable.sol\":936:954  _transferOwnership */\n  shl(0x20, tag_7)\n    /* \"https://github.com/OpenZeppelin/openzeppelin-contracts/blob/master/contracts/access/Ownable.sol\":936:968  _transferOwnership(_msgSender()) */\n  0x20\n  shr\n  jump\t// in\ntag_4:\n    /* \"SimpleWalletGitAllowanceRenounceOwner.sol\":64:977  contract SimpleWalletGit2 is Allowance {\r... */\n  jump(tag_8)\n    /* \"https://github.com/OpenZeppelin/openzeppelin-contracts/blob/master/contracts/utils/Context.sol\":640:736  function _msgSender() internal view virtual returns (address) {... */\ntag_6:\n    /* \"https://github.com/OpenZeppelin/openzeppelin-contracts/blob/master/contracts/utils/Context.sol\":693:700  address */\n  0x00\n    /* \"https://github.com/OpenZeppelin/openzeppelin-contracts/blob/master/contracts/utils/Context.sol\":719:729  msg.sender */\n  caller\n    /* \"https://github.com/OpenZeppelin/openzeppelin-contracts/blob/master/contracts/utils/Context.sol\":712:729  return msg.sender */\n  swap1\n  pop\n    /* \"https://github.com/OpenZeppelin/openzeppelin-contracts/blob/master/contracts/utils/Context.sol\":640:736  function _msgSender() internal view virtual returns (address) {... */\n  swap1\n  jump\t// out\n    /* \"https://github.com/OpenZeppelin/openzeppelin-contracts/blob/master/contracts/access/Ownable.sol\":2433:2620  function _transferOwnership(address newOwner) internal virtual {... */\ntag_7:\n    /* \"https://github.com/OpenZeppelin/openzeppelin-contracts/blob/master/contracts/access/Ownable.sol\":2506:2522  address oldOwner */\n  0x00\n    /* \"https://github.com/OpenZeppelin/openzeppelin-contracts/blob/master/contracts/access/Ownable.sol\":2525:2531  _owner */\n  dup1\n  0x00\n  swap1\n  sload\n  swap1\n  0x0100\n  exp\n  swap1\n  div\n  0xffffffffffffffffffffffffffffffffffffffff\n  and\n    /* \"https://github.com/OpenZeppelin/openzeppelin-contracts/blob/master/contracts/access/Ownable.sol\":2506:2531  address oldOwner = _owner */\n  swap1\n  pop\n    /* \"https://github.com/OpenZeppelin/openzeppelin-contracts/blob/master/contracts/access/Ownable.sol\":2550:2558  newOwner */\n  dup2\n    /* \"https://github.com/OpenZeppelin/openzeppelin-contracts/blob/master/contracts/access/Ownable.sol\":2541:2547  _owner */\n  0x00\n  dup1\n    /* \"https://github.com/OpenZeppelin/openzeppelin-contracts/blob/master/contracts/access/Ownable.sol\":2541:2558  _owner = newOwner */\n  0x0100\n  exp\n  dup2\n  sload\n  dup2\n  0xffffffffffffffffffffffffffffffffffffffff\n  mul\n  not\n  and\n  swap1\n  dup4\n  0xffffffffffffffffffffffffffffffffffffffff\n  and\n  mul\n  or\n  swap1\n  sstore\n  pop\n    /* \"https://github.com/OpenZeppelin/openzeppelin-contracts/blob/master/contracts/access/Ownable.sol\":2604:2612  newOwner */\n  dup2\n    /* \"https://github.com/OpenZeppelin/openzeppelin-contracts/blob/master/contracts/access/Ownable.sol\":2573:2613  OwnershipTransferred(oldOwner, newOwner) */\n  0xffffffffffffffffffffffffffffffffffffffff\n  and\n    /* \"https://github.com/OpenZeppelin/openzeppelin-contracts/blob/master/contracts/access/Ownable.sol\":2594:2602  oldOwner */\n  dup2\n    /* \"https://github.com/OpenZeppelin/openzeppelin-contracts/blob/master/contracts/access/Ownable.sol\":2573:2613  OwnershipTransferred(oldOwner, newOwner) */\n  0xffffffffffffffffffffffffffffffffffffffff\n  and\n  0x8be0079c531659141344cd1fd0a4f28419497f9722a3daafe3b4186f6b6457e0\n  mload(0x40)\n  mload(0x40)\n  dup1\n  swap2\n  sub\n  swap1\n  log3\n    /* \"https://github.com/OpenZeppelin/openzeppelin-contracts/blob/master/contracts/access/Ownable.sol\":2496:2620  {... */\n  pop\n    /* \"https://github.com/OpenZeppelin/openzeppelin-contracts/blob/master/contracts/access/Ownable.sol\":2433:2620  function _transferOwnership(address newOwner) internal virtual {... */\n  pop\n  jump\t// out\n    /* \"SimpleWalletGitAllowanceRenounceOwner.sol\":64:977  contract SimpleWalletGit2 is Allowance {\r... */\ntag_8:\n  dataSize(sub_0)\n  dup1\n  dataOffset(sub_0)\n  0x00\n  codecopy\n  0x00\n  return\nstop\n\nsub_0: assembly {\n        /* \"SimpleWalletGitAllowanceRenounceOwner.sol\":64:977  contract SimpleWalletGit2 is Allowance {\r... */\n      mstore(0x40, 0x80)\n      jumpi(tag_1, lt(calldatasize, 0x04))\n      shr(0xe0, calldataload(0x00))\n      dup1\n      0x3e5beab9\n      eq\n      tag_3\n      jumpi\n      dup1\n      0x715018a6\n      eq\n      tag_4\n      jumpi\n      dup1\n      0x8da5cb5b\n      eq\n      tag_5\n      jumpi\n      dup1\n      0xb39d7b7c\n      eq\n      tag_6\n      jumpi\n      dup1\n      0xf2fde38b\n      eq\n      tag_7\n      jumpi\n      dup1\n      0xf3c40c4b\n      eq\n      tag_8\n      jumpi\n      jump(tag_2)\n    tag_1:\n    tag_2:\n        /* \"SimpleWalletGitAllowanceRenounceOwner.sol\":939:949  msg.sender */\n      caller\n        /* \"SimpleWalletGitAllowanceRenounceOwner.sol\":926:960  moneyReceive(msg.sender,msg.value) */\n      0xffffffffffffffffffffffffffffffffffffffff\n      and\n      0x2173c5e71c51b969e5adf473175db282e83a6813e5b451f537689bc3456a2f3c\n        /* \"SimpleWalletGitAllowanceRenounceOwner.sol\":950:959  msg.value */\n      callvalue\n        /* \"SimpleWalletGitAllowanceRenounceOwner.sol\":926:960  moneyReceive(msg.sender,msg.value) */\n      mload(0x40)\n      tag_11\n      swap2\n      swap1\n      tag_12\n      jump\t// in\n    tag_11:\n      mload(0x40)\n      dup1\n      swap2\n      sub\n      swap1\n      log2\n        /* \"SimpleWalletGitAllowanceRenounceOwner.sol\":64:977  contract SimpleWalletGit2 is Allowance {\r... */\n      stop\n        /* \"Allowance.sol\":580:621  mapping(address => uint) public allowance */\n    tag_3:\n      callvalue\n      dup1\n      iszero\n      tag_13\n      jumpi\n      0x00\n      dup1\n      revert\n    tag_13:\n      pop\n      tag_14\n      0x04\n      dup1\n      calldatasize\n      sub\n      dup2\n      add\n      swap1\n      tag_15\n      swap2\n      swap1\n      tag_16\n      jump\t// in\n    tag_15:\n      tag_17\n      jump\t// in\n    tag_14:\n      mload(0x40)\n      tag_18\n      swap2\n      swap1\n      tag_12\n      jump\t// in\n    tag_18:\n      mload(0x40)\n      dup1\n      swap2\n      sub\n      swap1\n      return\n        /* \"SimpleWalletGitAllowanceRenounceOwner.sol\":721:873  function renounceOwnership() public override onlyOwner {\r... */\n    tag_4:\n      callvalue\n      dup1\n      iszero\n      tag_19\n      jumpi\n      0x00\n      dup1\n      revert\n    tag_19:\n      pop\n      tag_20\n      tag_21\n      jump\t// in\n    tag_20:\n      stop\n        /* \"https://github.com/OpenZeppelin/openzeppelin-contracts/blob/master/contracts/access/Ownable.sol\":1201:1286  function owner() public view virtual returns (address) {... */\n    tag_5:\n      callvalue\n      dup1\n      iszero\n      tag_22\n      jumpi\n      0x00\n      dup1\n      revert\n    tag_22:\n      pop\n      tag_23\n      tag_24\n      jump\t// in\n    tag_23:\n      mload(0x40)\n      tag_25\n      swap2\n      swap1\n      tag_26\n      jump\t// in\n    tag_25:\n      mload(0x40)\n      dup1\n      swap2\n      sub\n      swap1\n      return\n        /* \"SimpleWalletGitAllowanceRenounceOwner.sol\":244:713  function withDrawMoney(address payable _to, uint _amount) public ownerOrAllowed(_amount) { //소유자는 무제한 인출 가능, 소유자가 아닌경우 허용 인출만 가능\r... */\n    tag_6:\n      callvalue\n      dup1\n      iszero\n      tag_27\n      jumpi\n      0x00\n      dup1\n      revert\n    tag_27:\n      pop\n      tag_28\n      0x04\n      dup1\n      calldatasize\n      sub\n      dup2\n      add\n      swap1\n      tag_29\n      swap2\n      swap1\n      tag_30\n      jump\t// in\n    tag_29:\n      tag_31\n      jump\t// in\n    tag_28:\n      stop\n        /* \"https://github.com/OpenZeppelin/openzeppelin-contracts/blob/master/contracts/access/Ownable.sol\":2081:2279  function transferOwnership(address newOwner) public virtual onlyOwner {... */\n    tag_7:\n      callvalue\n      dup1\n      iszero\n      tag_32\n      jumpi\n      0x00\n      dup1\n      revert\n    tag_32:\n      pop\n      tag_33\n      0x04\n      dup1\n      calldatasize\n      sub\n      dup2\n      add\n      swap1\n      tag_34\n      swap2\n      swap1\n      tag_16\n      jump\t// in\n    tag_34:\n      tag_35\n      jump\t// in\n    tag_33:\n      stop\n        /* \"Allowance.sol\":773:1027  function addAllowance(address _who, uint _amount) public onlyOwner {\r... */\n    tag_8:\n      callvalue\n      dup1\n      iszero\n      tag_36\n      jumpi\n      0x00\n      dup1\n      revert\n    tag_36:\n      pop\n      tag_37\n      0x04\n      dup1\n      calldatasize\n      sub\n      dup2\n      add\n      swap1\n      tag_38\n      swap2\n      swap1\n      tag_39\n      jump\t// in\n    tag_38:\n      tag_40\n      jump\t// in\n    tag_37:\n      stop\n        /* \"Allowance.sol\":580:621  mapping(address => uint) public allowance */\n    tag_17:\n      mstore(0x20, 0x01)\n      dup1\n      0x00\n      mstore\n      keccak256(0x00, 0x40)\n      0x00\n      swap2\n      pop\n      swap1\n      pop\n      sload\n      dup2\n      jump\t// out\n        /* \"SimpleWalletGitAllowanceRenounceOwner.sol\":721:873  function renounceOwnership() public override onlyOwner {\r... */\n    tag_21:\n        /* \"https://github.com/OpenZeppelin/openzeppelin-contracts/blob/master/contracts/access/Ownable.sol\":1094:1107  _checkOwner() */\n      tag_42\n        /* \"https://github.com/OpenZeppelin/openzeppelin-contracts/blob/master/contracts/access/Ownable.sol\":1094:1105  _checkOwner */\n      tag_43\n        /* \"https://github.com/OpenZeppelin/openzeppelin-contracts/blob/master/contracts/access/Ownable.sol\":1094:1107  _checkOwner() */\n      jump\t// in\n    tag_42:\n        /* \"SimpleWalletGitAllowanceRenounceOwner.sol\":787:825  revert(\"can't renounceOwnership here\") */\n      mload(0x40)\n      0x08c379a000000000000000000000000000000000000000000000000000000000\n      dup2\n      mstore\n      0x04\n      add\n      tag_45\n      swap1\n      tag_46\n      jump\t// in\n    tag_45:\n      mload(0x40)\n      dup1\n      swap2\n      sub\n      swap1\n      revert\n        /* \"https://github.com/OpenZeppelin/openzeppelin-contracts/blob/master/contracts/access/Ownable.sol\":1201:1286  function owner() public view virtual returns (address) {... */\n    tag_24:\n        /* \"https://github.com/OpenZeppelin/openzeppelin-contracts/blob/master/contracts/access/Ownable.sol\":1247:1254  address */\n      0x00\n        /* \"https://github.com/OpenZeppelin/openzeppelin-contracts/blob/master/contracts/access/Ownable.sol\":1273:1279  _owner */\n      dup1\n      0x00\n      swap1\n      sload\n      swap1\n      0x0100\n      exp\n      swap1\n      div\n      0xffffffffffffffffffffffffffffffffffffffff\n      and\n        /* \"https://github.com/OpenZeppelin/openzeppelin-contracts/blob/master/contracts/access/Ownable.sol\":1266:1279  return _owner */\n      swap1\n      pop\n        /* \"https://github.com/OpenZeppelin/openzeppelin-contracts/blob/master/contracts/access/Ownable.sol\":1201:1286  function owner() public view virtual returns (address) {... */\n      swap1\n      jump\t// out\n        /* \"SimpleWalletGitAllowanceRenounceOwner.sol\":244:713  function withDrawMoney(address payable _to, uint _amount) public ownerOrAllowed(_amount) { //소유자는 무제한 인출 가능, 소유자가 아닌경우 허용 인출만 가능\r... */\n    tag_31:\n        /* \"SimpleWalletGitAllowanceRenounceOwner.sol\":324:331  _amount */\n      dup1\n        /* \"Allowance.sol\":1092:1101  isOwner() */\n      tag_49\n        /* \"Allowance.sol\":1092:1099  isOwner */\n      tag_50\n        /* \"Allowance.sol\":1092:1101  isOwner() */\n      jump\t// in\n    tag_49:\n        /* \"Allowance.sol\":1092:1136  isOwner()|| allowance[msg.sender] >= _amount */\n      dup1\n      tag_51\n      jumpi\n      pop\n        /* \"Allowance.sol\":1129:1136  _amount */\n      dup1\n        /* \"Allowance.sol\":1104:1113  allowance */\n      0x01\n        /* \"Allowance.sol\":1104:1125  allowance[msg.sender] */\n      0x00\n        /* \"Allowance.sol\":1114:1124  msg.sender */\n      caller\n        /* \"Allowance.sol\":1104:1125  allowance[msg.sender] */\n      0xffffffffffffffffffffffffffffffffffffffff\n      and\n      0xffffffffffffffffffffffffffffffffffffffff\n      and\n      dup2\n      mstore\n      0x20\n      add\n      swap1\n      dup2\n      mstore\n      0x20\n      add\n      0x00\n      keccak256\n      sload\n        /* \"Allowance.sol\":1104:1136  allowance[msg.sender] >= _amount */\n      lt\n      iszero\n        /* \"Allowance.sol\":1092:1136  isOwner()|| allowance[msg.sender] >= _amount */\n    tag_51:\n        /* \"Allowance.sol\":1084:1165  require(isOwner()|| allowance[msg.sender] >= _amount , \"You are not allowed!!!\" ) */\n      tag_52\n      jumpi\n      mload(0x40)\n      0x08c379a000000000000000000000000000000000000000000000000000000000\n      dup2\n      mstore\n      0x04\n      add\n      tag_53\n      swap1\n      tag_54\n      jump\t// in\n    tag_53:\n      mload(0x40)\n      dup1\n      swap2\n      sub\n      swap1\n      revert\n    tag_52:\n        /* \"SimpleWalletGitAllowanceRenounceOwner.sol\":467:474  _amount */\n      dup2\n        /* \"SimpleWalletGitAllowanceRenounceOwner.sol\":442:463  address(this).balance */\n      selfbalance\n        /* \"SimpleWalletGitAllowanceRenounceOwner.sol\":442:474  address(this).balance >= _amount */\n      lt\n      iszero\n        /* \"SimpleWalletGitAllowanceRenounceOwner.sol\":434:534  require(address(this).balance >= _amount, \"there are not enough funds stored in the smart contract\") */\n      tag_56\n      jumpi\n      mload(0x40)\n      0x08c379a000000000000000000000000000000000000000000000000000000000\n      dup2\n      mstore\n      0x04\n      add\n      tag_57\n      swap1\n      tag_58\n      jump\t// in\n    tag_57:\n      mload(0x40)\n      dup1\n      swap2\n      sub\n      swap1\n      revert\n    tag_56:\n        /* \"SimpleWalletGitAllowanceRenounceOwner.sol\":558:567  isOwner() */\n      tag_59\n        /* \"SimpleWalletGitAllowanceRenounceOwner.sol\":558:565  isOwner */\n      tag_50\n        /* \"SimpleWalletGitAllowanceRenounceOwner.sol\":558:567  isOwner() */\n      jump\t// in\n    tag_59:\n        /* \"SimpleWalletGitAllowanceRenounceOwner.sol\":555:631  if(isOwner()){\r... */\n      iszero\n      tag_60\n      jumpi\n        /* \"SimpleWalletGitAllowanceRenounceOwner.sol\":583:619  reduceAllowance(msg.sender, _amount) */\n      tag_61\n        /* \"SimpleWalletGitAllowanceRenounceOwner.sol\":599:609  msg.sender */\n      caller\n        /* \"SimpleWalletGitAllowanceRenounceOwner.sol\":611:618  _amount */\n      dup4\n        /* \"SimpleWalletGitAllowanceRenounceOwner.sol\":583:598  reduceAllowance */\n      tag_62\n        /* \"SimpleWalletGitAllowanceRenounceOwner.sol\":583:619  reduceAllowance(msg.sender, _amount) */\n      jump\t// in\n    tag_61:\n        /* \"SimpleWalletGitAllowanceRenounceOwner.sol\":555:631  if(isOwner()){\r... */\n    tag_60:\n        /* \"SimpleWalletGitAllowanceRenounceOwner.sol\":660:663  _to */\n      dup3\n        /* \"SimpleWalletGitAllowanceRenounceOwner.sol\":646:673  moneyWithdraw(_to, _amount) */\n      0xffffffffffffffffffffffffffffffffffffffff\n      and\n      0x84fed5136983df2f9b05e9be1060ad085db88d6f35a628b6b4e0963ff539d48b\n        /* \"SimpleWalletGitAllowanceRenounceOwner.sol\":665:672  _amount */\n      dup4\n        /* \"SimpleWalletGitAllowanceRenounceOwner.sol\":646:673  moneyWithdraw(_to, _amount) */\n      mload(0x40)\n      tag_63\n      swap2\n      swap1\n      tag_12\n      jump\t// in\n    tag_63:\n      mload(0x40)\n      dup1\n      swap2\n      sub\n      swap1\n      log2\n        /* \"SimpleWalletGitAllowanceRenounceOwner.sol\":684:687  _to */\n      dup3\n        /* \"SimpleWalletGitAllowanceRenounceOwner.sol\":684:696  _to.transfer */\n      0xffffffffffffffffffffffffffffffffffffffff\n      and\n        /* \"SimpleWalletGitAllowanceRenounceOwner.sol\":684:705  _to.transfer(_amount) */\n      0x08fc\n        /* \"SimpleWalletGitAllowanceRenounceOwner.sol\":697:704  _amount */\n      dup4\n        /* \"SimpleWalletGitAllowanceRenounceOwner.sol\":684:705  _to.transfer(_amount) */\n      swap1\n      dup2\n      iszero\n      mul\n      swap1\n      mload(0x40)\n      0x00\n      mload(0x40)\n      dup1\n      dup4\n      sub\n      dup2\n      dup6\n      dup9\n      dup9\n      call\n      swap4\n      pop\n      pop\n      pop\n      pop\n      iszero\n      dup1\n      iszero\n      tag_65\n      jumpi\n      returndatasize\n      0x00\n      dup1\n      returndatacopy\n      revert(0x00, returndatasize)\n    tag_65:\n      pop\n        /* \"SimpleWalletGitAllowanceRenounceOwner.sol\":244:713  function withDrawMoney(address payable _to, uint _amount) public ownerOrAllowed(_amount) { //소유자는 무제한 인출 가능, 소유자가 아닌경우 허용 인출만 가능\r... */\n      pop\n      pop\n      pop\n      jump\t// out\n        /* \"https://github.com/OpenZeppelin/openzeppelin-contracts/blob/master/contracts/access/Ownable.sol\":2081:2279  function transferOwnership(address newOwner) public virtual onlyOwner {... */\n    tag_35:\n        /* \"https://github.com/OpenZeppelin/openzeppelin-contracts/blob/master/contracts/access/Ownable.sol\":1094:1107  _checkOwner() */\n      tag_67\n        /* \"https://github.com/OpenZeppelin/openzeppelin-contracts/blob/master/contracts/access/Ownable.sol\":1094:1105  _checkOwner */\n      tag_43\n        /* \"https://github.com/OpenZeppelin/openzeppelin-contracts/blob/master/contracts/access/Ownable.sol\":1094:1107  _checkOwner() */\n      jump\t// in\n    tag_67:\n        /* \"https://github.com/OpenZeppelin/openzeppelin-contracts/blob/master/contracts/access/Ownable.sol\":2189:2190  0 */\n      0x00\n        /* \"https://github.com/OpenZeppelin/openzeppelin-contracts/blob/master/contracts/access/Ownable.sol\":2169:2191  newOwner != address(0) */\n      0xffffffffffffffffffffffffffffffffffffffff\n      and\n        /* \"https://github.com/OpenZeppelin/openzeppelin-contracts/blob/master/contracts/access/Ownable.sol\":2169:2177  newOwner */\n      dup2\n        /* \"https://github.com/OpenZeppelin/openzeppelin-contracts/blob/master/contracts/access/Ownable.sol\":2169:2191  newOwner != address(0) */\n      0xffffffffffffffffffffffffffffffffffffffff\n      and\n      eq\n      iszero\n        /* \"https://github.com/OpenZeppelin/openzeppelin-contracts/blob/master/contracts/access/Ownable.sol\":2161:2234  require(newOwner != address(0), \"Ownable: new owner is the zero address\") */\n      tag_69\n      jumpi\n      mload(0x40)\n      0x08c379a000000000000000000000000000000000000000000000000000000000\n      dup2\n      mstore\n      0x04\n      add\n      tag_70\n      swap1\n      tag_71\n      jump\t// in\n    tag_70:\n      mload(0x40)\n      dup1\n      swap2\n      sub\n      swap1\n      revert\n    tag_69:\n        /* \"https://github.com/OpenZeppelin/openzeppelin-contracts/blob/master/contracts/access/Ownable.sol\":2244:2272  _transferOwnership(newOwner) */\n      tag_72\n        /* \"https://github.com/OpenZeppelin/openzeppelin-contracts/blob/master/contracts/access/Ownable.sol\":2263:2271  newOwner */\n      dup2\n        /* \"https://github.com/OpenZeppelin/openzeppelin-contracts/blob/master/contracts/access/Ownable.sol\":2244:2262  _transferOwnership */\n      tag_73\n        /* \"https://github.com/OpenZeppelin/openzeppelin-contracts/blob/master/contracts/access/Ownable.sol\":2244:2272  _transferOwnership(newOwner) */\n      jump\t// in\n    tag_72:\n        /* \"https://github.com/OpenZeppelin/openzeppelin-contracts/blob/master/contracts/access/Ownable.sol\":2081:2279  function transferOwnership(address newOwner) public virtual onlyOwner {... */\n      pop\n      jump\t// out\n        /* \"Allowance.sol\":773:1027  function addAllowance(address _who, uint _amount) public onlyOwner {\r... */\n    tag_40:\n        /* \"https://github.com/OpenZeppelin/openzeppelin-contracts/blob/master/contracts/access/Ownable.sol\":1094:1107  _checkOwner() */\n      tag_75\n        /* \"https://github.com/OpenZeppelin/openzeppelin-contracts/blob/master/contracts/access/Ownable.sol\":1094:1105  _checkOwner */\n      tag_43\n        /* \"https://github.com/OpenZeppelin/openzeppelin-contracts/blob/master/contracts/access/Ownable.sol\":1094:1107  _checkOwner() */\n      jump\t// in\n    tag_75:\n        /* \"Allowance.sol\":879:889  msg.sender */\n      caller\n        /* \"Allowance.sol\":856:916  AllowanceChanged(_who, msg.sender, allowance[_who], _amount) */\n      0xffffffffffffffffffffffffffffffffffffffff\n      and\n        /* \"Allowance.sol\":873:877  _who */\n      dup3\n        /* \"Allowance.sol\":856:916  AllowanceChanged(_who, msg.sender, allowance[_who], _amount) */\n      0xffffffffffffffffffffffffffffffffffffffff\n      and\n      0x3691d1a86d99355e52b689ca70a7bdf6d80763237a6aa06e5fa43964eac7244b\n        /* \"Allowance.sol\":891:900  allowance */\n      0x01\n        /* \"Allowance.sol\":891:906  allowance[_who] */\n      0x00\n        /* \"Allowance.sol\":901:905  _who */\n      dup7\n        /* \"Allowance.sol\":891:906  allowance[_who] */\n      0xffffffffffffffffffffffffffffffffffffffff\n      and\n      0xffffffffffffffffffffffffffffffffffffffff\n      and\n      dup2\n      mstore\n      0x20\n      add\n      swap1\n      dup2\n      mstore\n      0x20\n      add\n      0x00\n      keccak256\n      sload\n        /* \"Allowance.sol\":908:915  _amount */\n      dup5\n        /* \"Allowance.sol\":856:916  AllowanceChanged(_who, msg.sender, allowance[_who], _amount) */\n      mload(0x40)\n      tag_77\n      swap3\n      swap2\n      swap1\n      tag_78\n      jump\t// in\n    tag_77:\n      mload(0x40)\n      dup1\n      swap2\n      sub\n      swap1\n      log3\n        /* \"Allowance.sol\":983:990  _amount */\n      dup1\n        /* \"Allowance.sol\":965:974  allowance */\n      0x01\n        /* \"Allowance.sol\":965:980  allowance[_who] */\n      0x00\n        /* \"Allowance.sol\":975:979  _who */\n      dup5\n        /* \"Allowance.sol\":965:980  allowance[_who] */\n      0xffffffffffffffffffffffffffffffffffffffff\n      and\n      0xffffffffffffffffffffffffffffffffffffffff\n      and\n      dup2\n      mstore\n      0x20\n      add\n      swap1\n      dup2\n      mstore\n      0x20\n      add\n      0x00\n      keccak256\n        /* \"Allowance.sol\":965:990  allowance[_who] = _amount */\n      dup2\n      swap1\n      sstore\n      pop\n        /* \"Allowance.sol\":773:1027  function addAllowance(address _who, uint _amount) public onlyOwner {\r... */\n      pop\n      pop\n      jump\t// out\n        /* \"https://github.com/OpenZeppelin/openzeppelin-contracts/blob/master/contracts/access/Ownable.sol\":1359:1489  function _checkOwner() internal view virtual {... */\n    tag_43:\n        /* \"https://github.com/OpenZeppelin/openzeppelin-contracts/blob/master/contracts/access/Ownable.sol\":1433:1445  _msgSender() */\n      tag_80\n        /* \"https://github.com/OpenZeppelin/openzeppelin-contracts/blob/master/contracts/access/Ownable.sol\":1433:1443  _msgSender */\n      tag_81\n        /* \"https://github.com/OpenZeppelin/openzeppelin-contracts/blob/master/contracts/access/Ownable.sol\":1433:1445  _msgSender() */\n      jump\t// in\n    tag_80:\n        /* \"https://github.com/OpenZeppelin/openzeppelin-contracts/blob/master/contracts/access/Ownable.sol\":1422:1445  owner() == _msgSender() */\n      0xffffffffffffffffffffffffffffffffffffffff\n      and\n        /* \"https://github.com/OpenZeppelin/openzeppelin-contracts/blob/master/contracts/access/Ownable.sol\":1422:1429  owner() */\n      tag_82\n        /* \"https://github.com/OpenZeppelin/openzeppelin-contracts/blob/master/contracts/access/Ownable.sol\":1422:1427  owner */\n      tag_24\n        /* \"https://github.com/OpenZeppelin/openzeppelin-contracts/blob/master/contracts/access/Ownable.sol\":1422:1429  owner() */\n      jump\t// in\n    tag_82:\n        /* \"https://github.com/OpenZeppelin/openzeppelin-contracts/blob/master/contracts/access/Ownable.sol\":1422:1445  owner() == _msgSender() */\n      0xffffffffffffffffffffffffffffffffffffffff\n      and\n      eq\n        /* \"https://github.com/OpenZeppelin/openzeppelin-contracts/blob/master/contracts/access/Ownable.sol\":1414:1482  require(owner() == _msgSender(), \"Ownable: caller is not the owner\") */\n      tag_83\n      jumpi\n      mload(0x40)\n      0x08c379a000000000000000000000000000000000000000000000000000000000\n      dup2\n      mstore\n      0x04\n      add\n      tag_84\n      swap1\n      tag_85\n      jump\t// in\n    tag_84:\n      mload(0x40)\n      dup1\n      swap2\n      sub\n      swap1\n      revert\n    tag_83:\n        /* \"https://github.com/OpenZeppelin/openzeppelin-contracts/blob/master/contracts/access/Ownable.sol\":1359:1489  function _checkOwner() internal view virtual {... */\n      jump\t// out\n        /* \"Allowance.sol\":667:761  function isOwner() internal view returns(bool) {\r... */\n    tag_50:\n        /* \"Allowance.sol\":708:712  bool */\n      0x00\n        /* \"Allowance.sol\":743:753  msg.sender */\n      caller\n        /* \"Allowance.sol\":732:753  owner() == msg.sender */\n      0xffffffffffffffffffffffffffffffffffffffff\n      and\n        /* \"Allowance.sol\":732:739  owner() */\n      tag_87\n        /* \"Allowance.sol\":732:737  owner */\n      tag_24\n        /* \"Allowance.sol\":732:739  owner() */\n      jump\t// in\n    tag_87:\n        /* \"Allowance.sol\":732:753  owner() == msg.sender */\n      0xffffffffffffffffffffffffffffffffffffffff\n      and\n      eq\n        /* \"Allowance.sol\":725:753  return owner() == msg.sender */\n      swap1\n      pop\n        /* \"Allowance.sol\":667:761  function isOwner() internal view returns(bool) {\r... */\n      swap1\n      jump\t// out\n        /* \"Allowance.sol\":1193:1435  function reduceAllowance(address _who, uint _amount) internal { //인출한 만큼 허용량 줄여주기\r... */\n    tag_62:\n        /* \"Allowance.sol\":1332:1342  msg.sender */\n      caller\n        /* \"Allowance.sol\":1309:1387  AllowanceChanged(_who, msg.sender, allowance[_who], allowance[_who] - _amount) */\n      0xffffffffffffffffffffffffffffffffffffffff\n      and\n        /* \"Allowance.sol\":1326:1330  _who */\n      dup3\n        /* \"Allowance.sol\":1309:1387  AllowanceChanged(_who, msg.sender, allowance[_who], allowance[_who] - _amount) */\n      0xffffffffffffffffffffffffffffffffffffffff\n      and\n      0x3691d1a86d99355e52b689ca70a7bdf6d80763237a6aa06e5fa43964eac7244b\n        /* \"Allowance.sol\":1344:1353  allowance */\n      0x01\n        /* \"Allowance.sol\":1344:1359  allowance[_who] */\n      0x00\n        /* \"Allowance.sol\":1354:1358  _who */\n      dup7\n        /* \"Allowance.sol\":1344:1359  allowance[_who] */\n      0xffffffffffffffffffffffffffffffffffffffff\n      and\n      0xffffffffffffffffffffffffffffffffffffffff\n      and\n      dup2\n      mstore\n      0x20\n      add\n      swap1\n      dup2\n      mstore\n      0x20\n      add\n      0x00\n      keccak256\n      sload\n        /* \"Allowance.sol\":1379:1386  _amount */\n      dup5\n        /* \"Allowance.sol\":1361:1370  allowance */\n      0x01\n        /* \"Allowance.sol\":1361:1376  allowance[_who] */\n      0x00\n        /* \"Allowance.sol\":1371:1375  _who */\n      dup9\n        /* \"Allowance.sol\":1361:1376  allowance[_who] */\n      0xffffffffffffffffffffffffffffffffffffffff\n      and\n      0xffffffffffffffffffffffffffffffffffffffff\n      and\n      dup2\n      mstore\n      0x20\n      add\n      swap1\n      dup2\n      mstore\n      0x20\n      add\n      0x00\n      keccak256\n      sload\n        /* \"Allowance.sol\":1361:1386  allowance[_who] - _amount */\n      tag_89\n      swap2\n      swap1\n      tag_90\n      jump\t// in\n    tag_89:\n        /* \"Allowance.sol\":1309:1387  AllowanceChanged(_who, msg.sender, allowance[_who], allowance[_who] - _amount) */\n      mload(0x40)\n      tag_91\n      swap3\n      swap2\n      swap1\n      tag_78\n      jump\t// in\n    tag_91:\n      mload(0x40)\n      dup1\n      swap2\n      sub\n      swap1\n      log3\n        /* \"Allowance.sol\":1417:1424  _amount */\n      dup1\n        /* \"Allowance.sol\":1398:1407  allowance */\n      0x01\n        /* \"Allowance.sol\":1398:1413  allowance[_who] */\n      0x00\n        /* \"Allowance.sol\":1408:1412  _who */\n      dup5\n        /* \"Allowance.sol\":1398:1413  allowance[_who] */\n      0xffffffffffffffffffffffffffffffffffffffff\n      and\n      0xffffffffffffffffffffffffffffffffffffffff\n      and\n      dup2\n      mstore\n      0x20\n      add\n      swap1\n      dup2\n      mstore\n      0x20\n      add\n      0x00\n      keccak256\n      0x00\n        /* \"Allowance.sol\":1398:1424  allowance[_who] -= _amount */\n      dup3\n      dup3\n      sload\n      tag_92\n      swap2\n      swap1\n      tag_90\n      jump\t// in\n    tag_92:\n      swap3\n      pop\n      pop\n      dup2\n      swap1\n      sstore\n      pop\n        /* \"Allowance.sol\":1193:1435  function reduceAllowance(address _who, uint _amount) internal { //인출한 만큼 허용량 줄여주기\r... */\n      pop\n      pop\n      jump\t// out\n        /* \"https://github.com/OpenZeppelin/openzeppelin-contracts/blob/master/contracts/access/Ownable.sol\":2433:2620  function _transferOwnership(address newOwner) internal virtual {... */\n    tag_73:\n        /* \"https://github.com/OpenZeppelin/openzeppelin-contracts/blob/master/contracts/access/Ownable.sol\":2506:2522  address oldOwner */\n      0x00\n        /* \"https://github.com/OpenZeppelin/openzeppelin-contracts/blob/master/contracts/access/Ownable.sol\":2525:2531  _owner */\n      dup1\n      0x00\n      swap1\n      sload\n      swap1\n      0x0100\n      exp\n      swap1\n      div\n      0xffffffffffffffffffffffffffffffffffffffff\n      and\n        /* \"https://github.com/OpenZeppelin/openzeppelin-contracts/blob/master/contracts/access/Ownable.sol\":2506:2531  address oldOwner = _owner */\n      swap1\n      pop\n        /* \"https://github.com/OpenZeppelin/openzeppelin-contracts/blob/master/contracts/access/Ownable.sol\":2550:2558  newOwner */\n      dup2\n        /* \"https://github.com/OpenZeppelin/openzeppelin-contracts/blob/master/contracts/access/Ownable.sol\":2541:2547  _owner */\n      0x00\n      dup1\n        /* \"https://github.com/OpenZeppelin/openzeppelin-contracts/blob/master/contracts/access/Ownable.sol\":2541:2558  _owner = newOwner */\n      0x0100\n      exp\n      dup2\n      sload\n      dup2\n      0xffffffffffffffffffffffffffffffffffffffff\n      mul\n      not\n      and\n      swap1\n      dup4\n      0xffffffffffffffffffffffffffffffffffffffff\n      and\n      mul\n      or\n      swap1\n      sstore\n      pop\n        /* \"https://github.com/OpenZeppelin/openzeppelin-contracts/blob/master/contracts/access/Ownable.sol\":2604:2612  newOwner */\n      dup2\n        /* \"https://github.com/OpenZeppelin/openzeppelin-contracts/blob/master/contracts/access/Ownable.sol\":2573:2613  OwnershipTransferred(oldOwner, newOwner) */\n      0xffffffffffffffffffffffffffffffffffffffff\n      and\n        /* \"https://github.com/OpenZeppelin/openzeppelin-contracts/blob/master/contracts/access/Ownable.sol\":2594:2602  oldOwner */\n      dup2\n        /* \"https://github.com/OpenZeppelin/openzeppelin-contracts/blob/master/contracts/access/Ownable.sol\":2573:2613  OwnershipTransferred(oldOwner, newOwner) */\n      0xffffffffffffffffffffffffffffffffffffffff\n      and\n      0x8be0079c531659141344cd1fd0a4f28419497f9722a3daafe3b4186f6b6457e0\n      mload(0x40)\n      mload(0x40)\n      dup1\n      swap2\n      sub\n      swap1\n      log3\n        /* \"https://github.com/OpenZeppelin/openzeppelin-contracts/blob/master/contracts/access/Ownable.sol\":2496:2620  {... */\n      pop\n        /* \"https://github.com/OpenZeppelin/openzeppelin-contracts/blob/master/contracts/access/Ownable.sol\":2433:2620  function _transferOwnership(address newOwner) internal virtual {... */\n      pop\n      jump\t// out\n        /* \"https://github.com/OpenZeppelin/openzeppelin-contracts/blob/master/contracts/utils/Context.sol\":640:736  function _msgSender() internal view virtual returns (address) {... */\n    tag_81:\n        /* \"https://github.com/OpenZeppelin/openzeppelin-contracts/blob/master/contracts/utils/Context.sol\":693:700  address */\n      0x00\n        /* \"https://github.com/OpenZeppelin/openzeppelin-contracts/blob/master/contracts/utils/Context.sol\":719:729  msg.sender */\n      caller\n        /* \"https://github.com/OpenZeppelin/openzeppelin-contracts/blob/master/contracts/utils/Context.sol\":712:729  return msg.sender */\n      swap1\n      pop\n        /* \"https://github.com/OpenZeppelin/openzeppelin-contracts/blob/master/contracts/utils/Context.sol\":640:736  function _msgSender() internal view virtual returns (address) {... */\n      swap1\n      jump\t// out\n        /* \"#utility.yul\":7:146   */\n    tag_96:\n        /* \"#utility.yul\":53:58   */\n      0x00\n        /* \"#utility.yul\":91:97   */\n      dup2\n        /* \"#utility.yul\":78:98   */\n      calldataload\n        /* \"#utility.yul\":69:98   */\n      swap1\n      pop\n        /* \"#utility.yul\":107:140   */\n      tag_98\n        /* \"#utility.yul\":134:139   */\n      dup2\n        /* \"#utility.yul\":107:140   */\n      tag_99\n      jump\t// in\n    tag_98:\n        /* \"#utility.yul\":7:146   */\n      swap3\n      swap2\n      pop\n      pop\n      jump\t// out\n        /* \"#utility.yul\":152:307   */\n    tag_100:\n        /* \"#utility.yul\":206:211   */\n      0x00\n        /* \"#utility.yul\":244:250   */\n      dup2\n        /* \"#utility.yul\":231:251   */\n      calldataload\n        /* \"#utility.yul\":222:251   */\n      swap1\n      pop\n        /* \"#utility.yul\":260:301   */\n      tag_102\n        /* \"#utility.yul\":295:300   */\n      dup2\n        /* \"#utility.yul\":260:301   */\n      tag_103\n      jump\t// in\n    tag_102:\n        /* \"#utility.yul\":152:307   */\n      swap3\n      swap2\n      pop\n      pop\n      jump\t// out\n        /* \"#utility.yul\":313:452   */\n    tag_104:\n        /* \"#utility.yul\":359:364   */\n      0x00\n        /* \"#utility.yul\":397:403   */\n      dup2\n        /* \"#utility.yul\":384:404   */\n      calldataload\n        /* \"#utility.yul\":375:404   */\n      swap1\n      pop\n        /* \"#utility.yul\":413:446   */\n      tag_106\n        /* \"#utility.yul\":440:445   */\n      dup2\n        /* \"#utility.yul\":413:446   */\n      tag_107\n      jump\t// in\n    tag_106:\n        /* \"#utility.yul\":313:452   */\n      swap3\n      swap2\n      pop\n      pop\n      jump\t// out\n        /* \"#utility.yul\":458:787   */\n    tag_16:\n        /* \"#utility.yul\":517:523   */\n      0x00\n        /* \"#utility.yul\":566:568   */\n      0x20\n        /* \"#utility.yul\":554:563   */\n      dup3\n        /* \"#utility.yul\":545:552   */\n      dup5\n        /* \"#utility.yul\":541:564   */\n      sub\n        /* \"#utility.yul\":537:569   */\n      slt\n        /* \"#utility.yul\":534:653   */\n      iszero\n      tag_109\n      jumpi\n        /* \"#utility.yul\":572:651   */\n      tag_110\n      tag_111\n      jump\t// in\n    tag_110:\n        /* \"#utility.yul\":534:653   */\n    tag_109:\n        /* \"#utility.yul\":692:693   */\n      0x00\n        /* \"#utility.yul\":717:770   */\n      tag_112\n        /* \"#utility.yul\":762:769   */\n      dup5\n        /* \"#utility.yul\":753:759   */\n      dup3\n        /* \"#utility.yul\":742:751   */\n      dup6\n        /* \"#utility.yul\":738:760   */\n      add\n        /* \"#utility.yul\":717:770   */\n      tag_96\n      jump\t// in\n    tag_112:\n        /* \"#utility.yul\":707:770   */\n      swap2\n      pop\n        /* \"#utility.yul\":663:780   */\n      pop\n        /* \"#utility.yul\":458:787   */\n      swap3\n      swap2\n      pop\n      pop\n      jump\t// out\n        /* \"#utility.yul\":793:1283   */\n    tag_30:\n        /* \"#utility.yul\":869:875   */\n      0x00\n        /* \"#utility.yul\":877:883   */\n      dup1\n        /* \"#utility.yul\":926:928   */\n      0x40\n        /* \"#utility.yul\":914:923   */\n      dup4\n        /* \"#utility.yul\":905:912   */\n      dup6\n        /* \"#utility.yul\":901:924   */\n      sub\n        /* \"#utility.yul\":897:929   */\n      slt\n        /* \"#utility.yul\":894:1013   */\n      iszero\n      tag_114\n      jumpi\n        /* \"#utility.yul\":932:1011   */\n      tag_115\n      tag_111\n      jump\t// in\n    tag_115:\n        /* \"#utility.yul\":894:1013   */\n    tag_114:\n        /* \"#utility.yul\":1052:1053   */\n      0x00\n        /* \"#utility.yul\":1077:1138   */\n      tag_116\n        /* \"#utility.yul\":1130:1137   */\n      dup6\n        /* \"#utility.yul\":1121:1127   */\n      dup3\n        /* \"#utility.yul\":1110:1119   */\n      dup7\n        /* \"#utility.yul\":1106:1128   */\n      add\n        /* \"#utility.yul\":1077:1138   */\n      tag_100\n      jump\t// in\n    tag_116:\n        /* \"#utility.yul\":1067:1138   */\n      swap3\n      pop\n        /* \"#utility.yul\":1023:1148   */\n      pop\n        /* \"#utility.yul\":1187:1189   */\n      0x20\n        /* \"#utility.yul\":1213:1266   */\n      tag_117\n        /* \"#utility.yul\":1258:1265   */\n      dup6\n        /* \"#utility.yul\":1249:1255   */\n      dup3\n        /* \"#utility.yul\":1238:1247   */\n      dup7\n        /* \"#utility.yul\":1234:1256   */\n      add\n        /* \"#utility.yul\":1213:1266   */\n      tag_104\n      jump\t// in\n    tag_117:\n        /* \"#utility.yul\":1203:1266   */\n      swap2\n      pop\n        /* \"#utility.yul\":1158:1276   */\n      pop\n        /* \"#utility.yul\":793:1283   */\n      swap3\n      pop\n      swap3\n      swap1\n      pop\n      jump\t// out\n        /* \"#utility.yul\":1289:1763   */\n    tag_39:\n        /* \"#utility.yul\":1357:1363   */\n      0x00\n        /* \"#utility.yul\":1365:1371   */\n      dup1\n        /* \"#utility.yul\":1414:1416   */\n      0x40\n        /* \"#utility.yul\":1402:1411   */\n      dup4\n        /* \"#utility.yul\":1393:1400   */\n      dup6\n        /* \"#utility.yul\":1389:1412   */\n      sub\n        /* \"#utility.yul\":1385:1417   */\n      slt\n        /* \"#utility.yul\":1382:1501   */\n      iszero\n      tag_119\n      jumpi\n        /* \"#utility.yul\":1420:1499   */\n      tag_120\n      tag_111\n      jump\t// in\n    tag_120:\n        /* \"#utility.yul\":1382:1501   */\n    tag_119:\n        /* \"#utility.yul\":1540:1541   */\n      0x00\n        /* \"#utility.yul\":1565:1618   */\n      tag_121\n        /* \"#utility.yul\":1610:1617   */\n      dup6\n        /* \"#utility.yul\":1601:1607   */\n      dup3\n        /* \"#utility.yul\":1590:1599   */\n      dup7\n        /* \"#utility.yul\":1586:1608   */\n      add\n        /* \"#utility.yul\":1565:1618   */\n      tag_96\n      jump\t// in\n    tag_121:\n        /* \"#utility.yul\":1555:1618   */\n      swap3\n      pop\n        /* \"#utility.yul\":1511:1628   */\n      pop\n        /* \"#utility.yul\":1667:1669   */\n      0x20\n        /* \"#utility.yul\":1693:1746   */\n      tag_122\n        /* \"#utility.yul\":1738:1745   */\n      dup6\n        /* \"#utility.yul\":1729:1735   */\n      dup3\n        /* \"#utility.yul\":1718:1727   */\n      dup7\n        /* \"#utility.yul\":1714:1736   */\n      add\n        /* \"#utility.yul\":1693:1746   */\n      tag_104\n      jump\t// in\n    tag_122:\n        /* \"#utility.yul\":1683:1746   */\n      swap2\n      pop\n        /* \"#utility.yul\":1638:1756   */\n      pop\n        /* \"#utility.yul\":1289:1763   */\n      swap3\n      pop\n      swap3\n      swap1\n      pop\n      jump\t// out\n        /* \"#utility.yul\":1769:1887   */\n    tag_123:\n        /* \"#utility.yul\":1856:1880   */\n      tag_125\n        /* \"#utility.yul\":1874:1879   */\n      dup2\n        /* \"#utility.yul\":1856:1880   */\n      tag_126\n      jump\t// in\n    tag_125:\n        /* \"#utility.yul\":1851:1854   */\n      dup3\n        /* \"#utility.yul\":1844:1881   */\n      mstore\n        /* \"#utility.yul\":1769:1887   */\n      pop\n      pop\n      jump\t// out\n        /* \"#utility.yul\":1893:2259   */\n    tag_127:\n        /* \"#utility.yul\":2035:2038   */\n      0x00\n        /* \"#utility.yul\":2056:2123   */\n      tag_129\n        /* \"#utility.yul\":2120:2122   */\n      0x26\n        /* \"#utility.yul\":2115:2118   */\n      dup4\n        /* \"#utility.yul\":2056:2123   */\n      tag_130\n      jump\t// in\n    tag_129:\n        /* \"#utility.yul\":2049:2123   */\n      swap2\n      pop\n        /* \"#utility.yul\":2132:2225   */\n      tag_131\n        /* \"#utility.yul\":2221:2224   */\n      dup3\n        /* \"#utility.yul\":2132:2225   */\n      tag_132\n      jump\t// in\n    tag_131:\n        /* \"#utility.yul\":2250:2252   */\n      0x40\n        /* \"#utility.yul\":2245:2248   */\n      dup3\n        /* \"#utility.yul\":2241:2253   */\n      add\n        /* \"#utility.yul\":2234:2253   */\n      swap1\n      pop\n        /* \"#utility.yul\":1893:2259   */\n      swap2\n      swap1\n      pop\n      jump\t// out\n        /* \"#utility.yul\":2265:2631   */\n    tag_133:\n        /* \"#utility.yul\":2407:2410   */\n      0x00\n        /* \"#utility.yul\":2428:2495   */\n      tag_135\n        /* \"#utility.yul\":2492:2494   */\n      0x1c\n        /* \"#utility.yul\":2487:2490   */\n      dup4\n        /* \"#utility.yul\":2428:2495   */\n      tag_130\n      jump\t// in\n    tag_135:\n        /* \"#utility.yul\":2421:2495   */\n      swap2\n      pop\n        /* \"#utility.yul\":2504:2597   */\n      tag_136\n        /* \"#utility.yul\":2593:2596   */\n      dup3\n        /* \"#utility.yul\":2504:2597   */\n      tag_137\n      jump\t// in\n    tag_136:\n        /* \"#utility.yul\":2622:2624   */\n      0x20\n        /* \"#utility.yul\":2617:2620   */\n      dup3\n        /* \"#utility.yul\":2613:2625   */\n      add\n        /* \"#utility.yul\":2606:2625   */\n      swap1\n      pop\n        /* \"#utility.yul\":2265:2631   */\n      swap2\n      swap1\n      pop\n      jump\t// out\n        /* \"#utility.yul\":2637:3003   */\n    tag_138:\n        /* \"#utility.yul\":2779:2782   */\n      0x00\n        /* \"#utility.yul\":2800:2867   */\n      tag_140\n        /* \"#utility.yul\":2864:2866   */\n      0x37\n        /* \"#utility.yul\":2859:2862   */\n      dup4\n        /* \"#utility.yul\":2800:2867   */\n      tag_130\n      jump\t// in\n    tag_140:\n        /* \"#utility.yul\":2793:2867   */\n      swap2\n      pop\n        /* \"#utility.yul\":2876:2969   */\n      tag_141\n        /* \"#utility.yul\":2965:2968   */\n      dup3\n        /* \"#utility.yul\":2876:2969   */\n      tag_142\n      jump\t// in\n    tag_141:\n        /* \"#utility.yul\":2994:2996   */\n      0x40\n        /* \"#utility.yul\":2989:2992   */\n      dup3\n        /* \"#utility.yul\":2985:2997   */\n      add\n        /* \"#utility.yul\":2978:2997   */\n      swap1\n      pop\n        /* \"#utility.yul\":2637:3003   */\n      swap2\n      swap1\n      pop\n      jump\t// out\n        /* \"#utility.yul\":3009:3375   */\n    tag_143:\n        /* \"#utility.yul\":3151:3154   */\n      0x00\n        /* \"#utility.yul\":3172:3239   */\n      tag_145\n        /* \"#utility.yul\":3236:3238   */\n      0x16\n        /* \"#utility.yul\":3231:3234   */\n      dup4\n        /* \"#utility.yul\":3172:3239   */\n      tag_130\n      jump\t// in\n    tag_145:\n        /* \"#utility.yul\":3165:3239   */\n      swap2\n      pop\n        /* \"#utility.yul\":3248:3341   */\n      tag_146\n        /* \"#utility.yul\":3337:3340   */\n      dup3\n        /* \"#utility.yul\":3248:3341   */\n      tag_147\n      jump\t// in\n    tag_146:\n        /* \"#utility.yul\":3366:3368   */\n      0x20\n        /* \"#utility.yul\":3361:3364   */\n      dup3\n        /* \"#utility.yul\":3357:3369   */\n      add\n        /* \"#utility.yul\":3350:3369   */\n      swap1\n      pop\n        /* \"#utility.yul\":3009:3375   */\n      swap2\n      swap1\n      pop\n      jump\t// out\n        /* \"#utility.yul\":3381:3747   */\n    tag_148:\n        /* \"#utility.yul\":3523:3526   */\n      0x00\n        /* \"#utility.yul\":3544:3611   */\n      tag_150\n        /* \"#utility.yul\":3608:3610   */\n      0x20\n        /* \"#utility.yul\":3603:3606   */\n      dup4\n        /* \"#utility.yul\":3544:3611   */\n      tag_130\n      jump\t// in\n    tag_150:\n        /* \"#utility.yul\":3537:3611   */\n      swap2\n      pop\n        /* \"#utility.yul\":3620:3713   */\n      tag_151\n        /* \"#utility.yul\":3709:3712   */\n      dup3\n        /* \"#utility.yul\":3620:3713   */\n      tag_152\n      jump\t// in\n    tag_151:\n        /* \"#utility.yul\":3738:3740   */\n      0x20\n        /* \"#utility.yul\":3733:3736   */\n      dup3\n        /* \"#utility.yul\":3729:3741   */\n      add\n        /* \"#utility.yul\":3722:3741   */\n      swap1\n      pop\n        /* \"#utility.yul\":3381:3747   */\n      swap2\n      swap1\n      pop\n      jump\t// out\n        /* \"#utility.yul\":3753:3871   */\n    tag_153:\n        /* \"#utility.yul\":3840:3864   */\n      tag_155\n        /* \"#utility.yul\":3858:3863   */\n      dup2\n        /* \"#utility.yul\":3840:3864   */\n      tag_156\n      jump\t// in\n    tag_155:\n        /* \"#utility.yul\":3835:3838   */\n      dup3\n        /* \"#utility.yul\":3828:3865   */\n      mstore\n        /* \"#utility.yul\":3753:3871   */\n      pop\n      pop\n      jump\t// out\n        /* \"#utility.yul\":3877:4099   */\n    tag_26:\n        /* \"#utility.yul\":3970:3974   */\n      0x00\n        /* \"#utility.yul\":4008:4010   */\n      0x20\n        /* \"#utility.yul\":3997:4006   */\n      dup3\n        /* \"#utility.yul\":3993:4011   */\n      add\n        /* \"#utility.yul\":3985:4011   */\n      swap1\n      pop\n        /* \"#utility.yul\":4021:4092   */\n      tag_158\n        /* \"#utility.yul\":4089:4090   */\n      0x00\n        /* \"#utility.yul\":4078:4087   */\n      dup4\n        /* \"#utility.yul\":4074:4091   */\n      add\n        /* \"#utility.yul\":4065:4071   */\n      dup5\n        /* \"#utility.yul\":4021:4092   */\n      tag_123\n      jump\t// in\n    tag_158:\n        /* \"#utility.yul\":3877:4099   */\n      swap3\n      swap2\n      pop\n      pop\n      jump\t// out\n        /* \"#utility.yul\":4105:4524   */\n    tag_71:\n        /* \"#utility.yul\":4271:4275   */\n      0x00\n        /* \"#utility.yul\":4309:4311   */\n      0x20\n        /* \"#utility.yul\":4298:4307   */\n      dup3\n        /* \"#utility.yul\":4294:4312   */\n      add\n        /* \"#utility.yul\":4286:4312   */\n      swap1\n      pop\n        /* \"#utility.yul\":4358:4367   */\n      dup2\n        /* \"#utility.yul\":4352:4356   */\n      dup2\n        /* \"#utility.yul\":4348:4368   */\n      sub\n        /* \"#utility.yul\":4344:4345   */\n      0x00\n        /* \"#utility.yul\":4333:4342   */\n      dup4\n        /* \"#utility.yul\":4329:4346   */\n      add\n        /* \"#utility.yul\":4322:4369   */\n      mstore\n        /* \"#utility.yul\":4386:4517   */\n      tag_160\n        /* \"#utility.yul\":4512:4516   */\n      dup2\n        /* \"#utility.yul\":4386:4517   */\n      tag_127\n      jump\t// in\n    tag_160:\n        /* \"#utility.yul\":4378:4517   */\n      swap1\n      pop\n        /* \"#utility.yul\":4105:4524   */\n      swap2\n      swap1\n      pop\n      jump\t// out\n        /* \"#utility.yul\":4530:4949   */\n    tag_46:\n        /* \"#utility.yul\":4696:4700   */\n      0x00\n        /* \"#utility.yul\":4734:4736   */\n      0x20\n        /* \"#utility.yul\":4723:4732   */\n      dup3\n        /* \"#utility.yul\":4719:4737   */\n      add\n        /* \"#utility.yul\":4711:4737   */\n      swap1\n      pop\n        /* \"#utility.yul\":4783:4792   */\n      dup2\n        /* \"#utility.yul\":4777:4781   */\n      dup2\n        /* \"#utility.yul\":4773:4793   */\n      sub\n        /* \"#utility.yul\":4769:4770   */\n      0x00\n        /* \"#utility.yul\":4758:4767   */\n      dup4\n        /* \"#utility.yul\":4754:4771   */\n      add\n        /* \"#utility.yul\":4747:4794   */\n      mstore\n        /* \"#utility.yul\":4811:4942   */\n      tag_162\n        /* \"#utility.yul\":4937:4941   */\n      dup2\n        /* \"#utility.yul\":4811:4942   */\n      tag_133\n      jump\t// in\n    tag_162:\n        /* \"#utility.yul\":4803:4942   */\n      swap1\n      pop\n        /* \"#utility.yul\":4530:4949   */\n      swap2\n      swap1\n      pop\n      jump\t// out\n        /* \"#utility.yul\":4955:5374   */\n    tag_58:\n        /* \"#utility.yul\":5121:5125   */\n      0x00\n        /* \"#utility.yul\":5159:5161   */\n      0x20\n        /* \"#utility.yul\":5148:5157   */\n      dup3\n        /* \"#utility.yul\":5144:5162   */\n      add\n        /* \"#utility.yul\":5136:5162   */\n      swap1\n      pop\n        /* \"#utility.yul\":5208:5217   */\n      dup2\n        /* \"#utility.yul\":5202:5206   */\n      dup2\n        /* \"#utility.yul\":5198:5218   */\n      sub\n        /* \"#utility.yul\":5194:5195   */\n      0x00\n        /* \"#utility.yul\":5183:5192   */\n      dup4\n        /* \"#utility.yul\":5179:5196   */\n      add\n        /* \"#utility.yul\":5172:5219   */\n      mstore\n        /* \"#utility.yul\":5236:5367   */\n      tag_164\n        /* \"#utility.yul\":5362:5366   */\n      dup2\n        /* \"#utility.yul\":5236:5367   */\n      tag_138\n      jump\t// in\n    tag_164:\n        /* \"#utility.yul\":5228:5367   */\n      swap1\n      pop\n        /* \"#utility.yul\":4955:5374   */\n      swap2\n      swap1\n      pop\n      jump\t// out\n        /* \"#utility.yul\":5380:5799   */\n    tag_54:\n        /* \"#utility.yul\":5546:5550   */\n      0x00\n        /* \"#utility.yul\":5584:5586   */\n      0x20\n        /* \"#utility.yul\":5573:5582   */\n      dup3\n        /* \"#utility.yul\":5569:5587   */\n      add\n        /* \"#utility.yul\":5561:5587   */\n      swap1\n      pop\n        /* \"#utility.yul\":5633:5642   */\n      dup2\n        /* \"#utility.yul\":5627:5631   */\n      dup2\n        /* \"#utility.yul\":5623:5643   */\n      sub\n        /* \"#utility.yul\":5619:5620   */\n      0x00\n        /* \"#utility.yul\":5608:5617   */\n      dup4\n        /* \"#utility.yul\":5604:5621   */\n      add\n        /* \"#utility.yul\":5597:5644   */\n      mstore\n        /* \"#utility.yul\":5661:5792   */\n      tag_166\n        /* \"#utility.yul\":5787:5791   */\n      dup2\n        /* \"#utility.yul\":5661:5792   */\n      tag_143\n      jump\t// in\n    tag_166:\n        /* \"#utility.yul\":5653:5792   */\n      swap1\n      pop\n        /* \"#utility.yul\":5380:5799   */\n      swap2\n      swap1\n      pop\n      jump\t// out\n        /* \"#utility.yul\":5805:6224   */\n    tag_85:\n        /* \"#utility.yul\":5971:5975   */\n      0x00\n        /* \"#utility.yul\":6009:6011   */\n      0x20\n        /* \"#utility.yul\":5998:6007   */\n      dup3\n        /* \"#utility.yul\":5994:6012   */\n      add\n        /* \"#utility.yul\":5986:6012   */\n      swap1\n      pop\n        /* \"#utility.yul\":6058:6067   */\n      dup2\n        /* \"#utility.yul\":6052:6056   */\n      dup2\n        /* \"#utility.yul\":6048:6068   */\n      sub\n        /* \"#utility.yul\":6044:6045   */\n      0x00\n        /* \"#utility.yul\":6033:6042   */\n      dup4\n        /* \"#utility.yul\":6029:6046   */\n      add\n        /* \"#utility.yul\":6022:6069   */\n      mstore\n        /* \"#utility.yul\":6086:6217   */\n      tag_168\n        /* \"#utility.yul\":6212:6216   */\n      dup2\n        /* \"#utility.yul\":6086:6217   */\n      tag_148\n      jump\t// in\n    tag_168:\n        /* \"#utility.yul\":6078:6217   */\n      swap1\n      pop\n        /* \"#utility.yul\":5805:6224   */\n      swap2\n      swap1\n      pop\n      jump\t// out\n        /* \"#utility.yul\":6230:6452   */\n    tag_12:\n        /* \"#utility.yul\":6323:6327   */\n      0x00\n        /* \"#utility.yul\":6361:6363   */\n      0x20\n        /* \"#utility.yul\":6350:6359   */\n      dup3\n        /* \"#utility.yul\":6346:6364   */\n      add\n        /* \"#utility.yul\":6338:6364   */\n      swap1\n      pop\n        /* \"#utility.yul\":6374:6445   */\n      tag_170\n        /* \"#utility.yul\":6442:6443   */\n      0x00\n        /* \"#utility.yul\":6431:6440   */\n      dup4\n        /* \"#utility.yul\":6427:6444   */\n      add\n        /* \"#utility.yul\":6418:6424   */\n      dup5\n        /* \"#utility.yul\":6374:6445   */\n      tag_153\n      jump\t// in\n    tag_170:\n        /* \"#utility.yul\":6230:6452   */\n      swap3\n      swap2\n      pop\n      pop\n      jump\t// out\n        /* \"#utility.yul\":6458:6790   */\n    tag_78:\n        /* \"#utility.yul\":6579:6583   */\n      0x00\n        /* \"#utility.yul\":6617:6619   */\n      0x40\n        /* \"#utility.yul\":6606:6615   */\n      dup3\n        /* \"#utility.yul\":6602:6620   */\n      add\n        /* \"#utility.yul\":6594:6620   */\n      swap1\n      pop\n        /* \"#utility.yul\":6630:6701   */\n      tag_172\n        /* \"#utility.yul\":6698:6699   */\n      0x00\n        /* \"#utility.yul\":6687:6696   */\n      dup4\n        /* \"#utility.yul\":6683:6700   */\n      add\n        /* \"#utility.yul\":6674:6680   */\n      dup6\n        /* \"#utility.yul\":6630:6701   */\n      tag_153\n      jump\t// in\n    tag_172:\n        /* \"#utility.yul\":6711:6783   */\n      tag_173\n        /* \"#utility.yul\":6779:6781   */\n      0x20\n        /* \"#utility.yul\":6768:6777   */\n      dup4\n        /* \"#utility.yul\":6764:6782   */\n      add\n        /* \"#utility.yul\":6755:6761   */\n      dup5\n        /* \"#utility.yul\":6711:6783   */\n      tag_153\n      jump\t// in\n    tag_173:\n        /* \"#utility.yul\":6458:6790   */\n      swap4\n      swap3\n      pop\n      pop\n      pop\n      jump\t// out\n        /* \"#utility.yul\":6877:7046   */\n    tag_130:\n        /* \"#utility.yul\":6961:6972   */\n      0x00\n        /* \"#utility.yul\":6995:7001   */\n      dup3\n        /* \"#utility.yul\":6990:6993   */\n      dup3\n        /* \"#utility.yul\":6983:7002   */\n      mstore\n        /* \"#utility.yul\":7035:7039   */\n      0x20\n        /* \"#utility.yul\":7030:7033   */\n      dup3\n        /* \"#utility.yul\":7026:7040   */\n      add\n        /* \"#utility.yul\":7011:7040   */\n      swap1\n      pop\n        /* \"#utility.yul\":6877:7046   */\n      swap3\n      swap2\n      pop\n      pop\n      jump\t// out\n        /* \"#utility.yul\":7052:7243   */\n    tag_90:\n        /* \"#utility.yul\":7092:7096   */\n      0x00\n        /* \"#utility.yul\":7112:7132   */\n      tag_178\n        /* \"#utility.yul\":7130:7131   */\n      dup3\n        /* \"#utility.yul\":7112:7132   */\n      tag_156\n      jump\t// in\n    tag_178:\n        /* \"#utility.yul\":7107:7132   */\n      swap2\n      pop\n        /* \"#utility.yul\":7146:7166   */\n      tag_179\n        /* \"#utility.yul\":7164:7165   */\n      dup4\n        /* \"#utility.yul\":7146:7166   */\n      tag_156\n      jump\t// in\n    tag_179:\n        /* \"#utility.yul\":7141:7166   */\n      swap3\n      pop\n        /* \"#utility.yul\":7185:7186   */\n      dup3\n        /* \"#utility.yul\":7182:7183   */\n      dup3\n        /* \"#utility.yul\":7179:7187   */\n      lt\n        /* \"#utility.yul\":7176:7210   */\n      iszero\n      tag_180\n      jumpi\n        /* \"#utility.yul\":7190:7208   */\n      tag_181\n      tag_182\n      jump\t// in\n    tag_181:\n        /* \"#utility.yul\":7176:7210   */\n    tag_180:\n        /* \"#utility.yul\":7235:7236   */\n      dup3\n        /* \"#utility.yul\":7232:7233   */\n      dup3\n        /* \"#utility.yul\":7228:7237   */\n      sub\n        /* \"#utility.yul\":7220:7237   */\n      swap1\n      pop\n        /* \"#utility.yul\":7052:7243   */\n      swap3\n      swap2\n      pop\n      pop\n      jump\t// out\n        /* \"#utility.yul\":7249:7345   */\n    tag_126:\n        /* \"#utility.yul\":7286:7293   */\n      0x00\n        /* \"#utility.yul\":7315:7339   */\n      tag_184\n        /* \"#utility.yul\":7333:7338   */\n      dup3\n        /* \"#utility.yul\":7315:7339   */\n      tag_185\n      jump\t// in\n    tag_184:\n        /* \"#utility.yul\":7304:7339   */\n      swap1\n      pop\n        /* \"#utility.yul\":7249:7345   */\n      swap2\n      swap1\n      pop\n      jump\t// out\n        /* \"#utility.yul\":7351:7455   */\n    tag_186:\n        /* \"#utility.yul\":7396:7403   */\n      0x00\n        /* \"#utility.yul\":7425:7449   */\n      tag_188\n        /* \"#utility.yul\":7443:7448   */\n      dup3\n        /* \"#utility.yul\":7425:7449   */\n      tag_185\n      jump\t// in\n    tag_188:\n        /* \"#utility.yul\":7414:7449   */\n      swap1\n      pop\n        /* \"#utility.yul\":7351:7455   */\n      swap2\n      swap1\n      pop\n      jump\t// out\n        /* \"#utility.yul\":7461:7587   */\n    tag_185:\n        /* \"#utility.yul\":7498:7505   */\n      0x00\n        /* \"#utility.yul\":7538:7580   */\n      0xffffffffffffffffffffffffffffffffffffffff\n        /* \"#utility.yul\":7531:7536   */\n      dup3\n        /* \"#utility.yul\":7527:7581   */\n      and\n        /* \"#utility.yul\":7516:7581   */\n      swap1\n      pop\n        /* \"#utility.yul\":7461:7587   */\n      swap2\n      swap1\n      pop\n      jump\t// out\n        /* \"#utility.yul\":7593:7670   */\n    tag_156:\n        /* \"#utility.yul\":7630:7637   */\n      0x00\n        /* \"#utility.yul\":7659:7664   */\n      dup2\n        /* \"#utility.yul\":7648:7664   */\n      swap1\n      pop\n        /* \"#utility.yul\":7593:7670   */\n      swap2\n      swap1\n      pop\n      jump\t// out\n        /* \"#utility.yul\":7676:7856   */\n    tag_182:\n        /* \"#utility.yul\":7724:7801   */\n      0x4e487b7100000000000000000000000000000000000000000000000000000000\n        /* \"#utility.yul\":7721:7722   */\n      0x00\n        /* \"#utility.yul\":7714:7802   */\n      mstore\n        /* \"#utility.yul\":7821:7825   */\n      0x11\n        /* \"#utility.yul\":7818:7819   */\n      0x04\n        /* \"#utility.yul\":7811:7826   */\n      mstore\n        /* \"#utility.yul\":7845:7849   */\n      0x24\n        /* \"#utility.yul\":7842:7843   */\n      0x00\n        /* \"#utility.yul\":7835:7850   */\n      revert\n        /* \"#utility.yul\":7985:8102   */\n    tag_111:\n        /* \"#utility.yul\":8094:8095   */\n      0x00\n        /* \"#utility.yul\":8091:8092   */\n      dup1\n        /* \"#utility.yul\":8084:8096   */\n      revert\n        /* \"#utility.yul\":8108:8333   */\n    tag_132:\n        /* \"#utility.yul\":8248:8282   */\n      0x4f776e61626c653a206e6577206f776e657220697320746865207a65726f2061\n        /* \"#utility.yul\":8244:8245   */\n      0x00\n        /* \"#utility.yul\":8236:8242   */\n      dup3\n        /* \"#utility.yul\":8232:8246   */\n      add\n        /* \"#utility.yul\":8225:8283   */\n      mstore\n        /* \"#utility.yul\":8317:8325   */\n      0x6464726573730000000000000000000000000000000000000000000000000000\n        /* \"#utility.yul\":8312:8314   */\n      0x20\n        /* \"#utility.yul\":8304:8310   */\n      dup3\n        /* \"#utility.yul\":8300:8315   */\n      add\n        /* \"#utility.yul\":8293:8326   */\n      mstore\n        /* \"#utility.yul\":8108:8333   */\n      pop\n      jump\t// out\n        /* \"#utility.yul\":8339:8517   */\n    tag_137:\n        /* \"#utility.yul\":8479:8509   */\n      0x63616e27742072656e6f756e63654f776e657273686970206865726500000000\n        /* \"#utility.yul\":8475:8476   */\n      0x00\n        /* \"#utility.yul\":8467:8473   */\n      dup3\n        /* \"#utility.yul\":8463:8477   */\n      add\n        /* \"#utility.yul\":8456:8510   */\n      mstore\n        /* \"#utility.yul\":8339:8517   */\n      pop\n      jump\t// out\n        /* \"#utility.yul\":8523:8765   */\n    tag_142:\n        /* \"#utility.yul\":8663:8697   */\n      0x746865726520617265206e6f7420656e6f7567682066756e64732073746f7265\n        /* \"#utility.yul\":8659:8660   */\n      0x00\n        /* \"#utility.yul\":8651:8657   */\n      dup3\n        /* \"#utility.yul\":8647:8661   */\n      add\n        /* \"#utility.yul\":8640:8698   */\n      mstore\n        /* \"#utility.yul\":8732:8757   */\n      0x6420696e2074686520736d61727420636f6e7472616374000000000000000000\n        /* \"#utility.yul\":8727:8729   */\n      0x20\n        /* \"#utility.yul\":8719:8725   */\n      dup3\n        /* \"#utility.yul\":8715:8730   */\n      add\n        /* \"#utility.yul\":8708:8758   */\n      mstore\n        /* \"#utility.yul\":8523:8765   */\n      pop\n      jump\t// out\n        /* \"#utility.yul\":8771:8943   */\n    tag_147:\n        /* \"#utility.yul\":8911:8935   */\n      0x596f7520617265206e6f7420616c6c6f77656421212100000000000000000000\n        /* \"#utility.yul\":8907:8908   */\n      0x00\n        /* \"#utility.yul\":8899:8905   */\n      dup3\n        /* \"#utility.yul\":8895:8909   */\n      add\n        /* \"#utility.yul\":8888:8936   */\n      mstore\n        /* \"#utility.yul\":8771:8943   */\n      pop\n      jump\t// out\n        /* \"#utility.yul\":8949:9131   */\n    tag_152:\n        /* \"#utility.yul\":9089:9123   */\n      0x4f776e61626c653a2063616c6c6572206973206e6f7420746865206f776e6572\n        /* \"#utility.yul\":9085:9086   */\n      0x00\n        /* \"#utility.yul\":9077:9083   */\n      dup3\n        /* \"#utility.yul\":9073:9087   */\n      add\n        /* \"#utility.yul\":9066:9124   */\n      mstore\n        /* \"#utility.yul\":8949:9131   */\n      pop\n      jump\t// out\n        /* \"#utility.yul\":9137:9259   */\n    tag_99:\n        /* \"#utility.yul\":9210:9234   */\n      tag_201\n        /* \"#utility.yul\":9228:9233   */\n      dup2\n        /* \"#utility.yul\":9210:9234   */\n      tag_126\n      jump\t// in\n    tag_201:\n        /* \"#utility.yul\":9203:9208   */\n      dup2\n        /* \"#utility.yul\":9200:9235   */\n      eq\n        /* \"#utility.yul\":9190:9253   */\n      tag_202\n      jumpi\n        /* \"#utility.yul\":9249:9250   */\n      0x00\n        /* \"#utility.yul\":9246:9247   */\n      dup1\n        /* \"#utility.yul\":9239:9251   */\n      revert\n        /* \"#utility.yul\":9190:9253   */\n    tag_202:\n        /* \"#utility.yul\":9137:9259   */\n      pop\n      jump\t// out\n        /* \"#utility.yul\":9265:9403   */\n    tag_103:\n        /* \"#utility.yul\":9346:9378   */\n      tag_204\n        /* \"#utility.yul\":9372:9377   */\n      dup2\n        /* \"#utility.yul\":9346:9378   */\n      tag_186\n      jump\t// in\n    tag_204:\n        /* \"#utility.yul\":9339:9344   */\n      dup2\n        /* \"#utility.yul\":9336:9379   */\n      eq\n        /* \"#utility.yul\":9326:9397   */\n      tag_205\n      jumpi\n        /* \"#utility.yul\":9393:9394   */\n      0x00\n        /* \"#utility.yul\":9390:9391   */\n      dup1\n        /* \"#utility.yul\":9383:9395   */\n      revert\n        /* \"#utility.yul\":9326:9397   */\n    tag_205:\n        /* \"#utility.yul\":9265:9403   */\n      pop\n      jump\t// out\n        /* \"#utility.yul\":9409:9531   */\n    tag_107:\n        /* \"#utility.yul\":9482:9506   */\n      tag_207\n        /* \"#utility.yul\":9500:9505   */\n      dup2\n        /* \"#utility.yul\":9482:9506   */\n      tag_156\n      jump\t// in\n    tag_207:\n        /* \"#utility.yul\":9475:9480   */\n      dup2\n        /* \"#utility.yul\":9472:9507   */\n      eq\n        /* \"#utility.yul\":9462:9525   */\n      tag_208\n      jumpi\n        /* \"#utility.yul\":9521:9522   */\n      0x00\n        /* \"#utility.yul\":9518:9519   */\n      dup1\n        /* \"#utility.yul\":9511:9523   */\n      revert\n        /* \"#utility.yul\":9462:9525   */\n    tag_208:\n        /* \"#utility.yul\":9409:9531   */\n      pop\n      jump\t// out\n\n    auxdata: 0xa2646970667358221220b94e72f2235d0eccb5de8c52720a8253a69317a520bb26512921bfe3a39584ab64736f6c63430008070033\n}\n",
				"bytecode": {
					"linkReferences": {},
					"object": "608060405234801561001057600080fd5b5061002d61002261003260201b60201c565b61003a60201b60201c565b6100fe565b600033905090565b60008060009054906101000a900473ffffffffffffffffffffffffffffffffffffffff169050816000806101000a81548173ffffffffffffffffffffffffffffffffffffffff021916908373ffffffffffffffffffffffffffffffffffffffff1602179055508173ffffffffffffffffffffffffffffffffffffffff168173ffffffffffffffffffffffffffffffffffffffff167f8be0079c531659141344cd1fd0a4f28419497f9722a3daafe3b4186f6b6457e060405160405180910390a35050565b610d0d8061010d6000396000f3fe6080604052600436106100595760003560e01c80633e5beab9146100aa578063715018a6146100e75780638da5cb5b146100fe578063b39d7b7c14610129578063f2fde38b14610152578063f3c40c4b1461017b5761005a565b5b3373ffffffffffffffffffffffffffffffffffffffff167f2173c5e71c51b969e5adf473175db282e83a6813e5b451f537689bc3456a2f3c346040516100a09190610a6e565b60405180910390a2005b3480156100b657600080fd5b506100d160048036038101906100cc9190610839565b6101a4565b6040516100de9190610a6e565b60405180910390f35b3480156100f357600080fd5b506100fc6101bc565b005b34801561010a57600080fd5b506101136101ff565b60405161012091906109b3565b60405180910390f35b34801561013557600080fd5b50610150600480360381019061014b9190610866565b610228565b005b34801561015e57600080fd5b5061017960048036038101906101749190610839565b6103af565b005b34801561018757600080fd5b506101a2600480360381019061019d91906108a6565b610433565b005b60016020528060005260406000206000915090505481565b6101c4610529565b6040517f08c379a00000000000000000000000000000000000000000000000000000000081526004016101f6906109ee565b60405180910390fd5b60008060009054906101000a900473ffffffffffffffffffffffffffffffffffffffff16905090565b806102316105a7565b8061027b575080600160003373ffffffffffffffffffffffffffffffffffffffff1673ffffffffffffffffffffffffffffffffffffffff1681526020019081526020016000205410155b6102ba576040517f08c379a00000000000000000000000000000000000000000000000000000000081526004016102b190610a2e565b60405180910390fd5b814710156102fd576040517f08c379a00000000000000000000000000000000000000000000000000000000081526004016102f490610a0e565b60405180910390fd5b6103056105a7565b156103155761031433836105e4565b5b8273ffffffffffffffffffffffffffffffffffffffff167f84fed5136983df2f9b05e9be1060ad085db88d6f35a628b6b4e0963ff539d48b8360405161035b9190610a6e565b60405180910390a28273ffffffffffffffffffffffffffffffffffffffff166108fc839081150290604051600060405180830381858888f193505050501580156103a9573d6000803e3d6000fd5b50505050565b6103b7610529565b600073ffffffffffffffffffffffffffffffffffffffff168173ffffffffffffffffffffffffffffffffffffffff161415610427576040517f08c379a000000000000000000000000000000000000000000000000000000000815260040161041e906109ce565b60405180910390fd5b6104308161072e565b50565b61043b610529565b3373ffffffffffffffffffffffffffffffffffffffff168273ffffffffffffffffffffffffffffffffffffffff167f3691d1a86d99355e52b689ca70a7bdf6d80763237a6aa06e5fa43964eac7244b600160008673ffffffffffffffffffffffffffffffffffffffff1673ffffffffffffffffffffffffffffffffffffffff16815260200190815260200160002054846040516104d9929190610a89565b60405180910390a380600160008473ffffffffffffffffffffffffffffffffffffffff1673ffffffffffffffffffffffffffffffffffffffff168152602001908152602001600020819055505050565b6105316107f2565b73ffffffffffffffffffffffffffffffffffffffff1661054f6101ff565b73ffffffffffffffffffffffffffffffffffffffff16146105a5576040517f08c379a000000000000000000000000000000000000000000000000000000000815260040161059c90610a4e565b60405180910390fd5b565b60003373ffffffffffffffffffffffffffffffffffffffff166105c86101ff565b73ffffffffffffffffffffffffffffffffffffffff1614905090565b3373ffffffffffffffffffffffffffffffffffffffff168273ffffffffffffffffffffffffffffffffffffffff167f3691d1a86d99355e52b689ca70a7bdf6d80763237a6aa06e5fa43964eac7244b600160008673ffffffffffffffffffffffffffffffffffffffff1673ffffffffffffffffffffffffffffffffffffffff1681526020019081526020016000205484600160008873ffffffffffffffffffffffffffffffffffffffff1673ffffffffffffffffffffffffffffffffffffffff168152602001908152602001600020546106be9190610ac3565b6040516106cc929190610a89565b60405180910390a380600160008473ffffffffffffffffffffffffffffffffffffffff1673ffffffffffffffffffffffffffffffffffffffff16815260200190815260200160002060008282546107239190610ac3565b925050819055505050565b60008060009054906101000a900473ffffffffffffffffffffffffffffffffffffffff169050816000806101000a81548173ffffffffffffffffffffffffffffffffffffffff021916908373ffffffffffffffffffffffffffffffffffffffff1602179055508173ffffffffffffffffffffffffffffffffffffffff168173ffffffffffffffffffffffffffffffffffffffff167f8be0079c531659141344cd1fd0a4f28419497f9722a3daafe3b4186f6b6457e060405160405180910390a35050565b600033905090565b60008135905061080981610c92565b92915050565b60008135905061081e81610ca9565b92915050565b60008135905061083381610cc0565b92915050565b60006020828403121561084f5761084e610b74565b5b600061085d848285016107fa565b91505092915050565b6000806040838503121561087d5761087c610b74565b5b600061088b8582860161080f565b925050602061089c85828601610824565b9150509250929050565b600080604083850312156108bd576108bc610b74565b5b60006108cb858286016107fa565b92505060206108dc85828601610824565b9150509250929050565b6108ef81610af7565b82525050565b6000610902602683610ab2565b915061090d82610b79565b604082019050919050565b6000610925601c83610ab2565b915061093082610bc8565b602082019050919050565b6000610948603783610ab2565b915061095382610bf1565b604082019050919050565b600061096b601683610ab2565b915061097682610c40565b602082019050919050565b600061098e602083610ab2565b915061099982610c69565b602082019050919050565b6109ad81610b3b565b82525050565b60006020820190506109c860008301846108e6565b92915050565b600060208201905081810360008301526109e7816108f5565b9050919050565b60006020820190508181036000830152610a0781610918565b9050919050565b60006020820190508181036000830152610a278161093b565b9050919050565b60006020820190508181036000830152610a478161095e565b9050919050565b60006020820190508181036000830152610a6781610981565b9050919050565b6000602082019050610a8360008301846109a4565b92915050565b6000604082019050610a9e60008301856109a4565b610aab60208301846109a4565b9392505050565b600082825260208201905092915050565b6000610ace82610b3b565b9150610ad983610b3b565b925082821015610aec57610aeb610b45565b5b828203905092915050565b6000610b0282610b1b565b9050919050565b6000610b1482610b1b565b9050919050565b600073ffffffffffffffffffffffffffffffffffffffff82169050919050565b6000819050919050565b7f4e487b7100000000000000000000000000000000000000000000000000000000600052601160045260246000fd5b600080fd5b7f4f776e61626c653a206e6577206f776e657220697320746865207a65726f206160008201527f6464726573730000000000000000000000000000000000000000000000000000602082015250565b7f63616e27742072656e6f756e63654f776e657273686970206865726500000000600082015250565b7f746865726520617265206e6f7420656e6f7567682066756e64732073746f726560008201527f6420696e2074686520736d61727420636f6e7472616374000000000000000000602082015250565b7f596f7520617265206e6f7420616c6c6f77656421212100000000000000000000600082015250565b7f4f776e61626c653a2063616c6c6572206973206e6f7420746865206f776e6572600082015250565b610c9b81610af7565b8114610ca657600080fd5b50565b610cb281610b09565b8114610cbd57600080fd5b50565b610cc981610b3b565b8114610cd457600080fd5b5056fea2646970667358221220b94e72f2235d0eccb5de8c52720a8253a69317a520bb26512921bfe3a39584ab64736f6c63430008070033",
					"opcodes": "PUSH1 0x80 PUSH1 0x40 MSTORE CALLVALUE DUP1 ISZERO PUSH2 0x10 JUMPI PUSH1 0x0 DUP1 REVERT JUMPDEST POP PUSH2 0x2D PUSH2 0x22 PUSH2 0x32 PUSH1 0x20 SHL PUSH1 0x20 SHR JUMP JUMPDEST PUSH2 0x3A PUSH1 0x20 SHL PUSH1 0x20 SHR JUMP JUMPDEST PUSH2 0xFE JUMP JUMPDEST PUSH1 0x0 CALLER SWAP1 POP SWAP1 JUMP JUMPDEST PUSH1 0x0 DUP1 PUSH1 0x0 SWAP1 SLOAD SWAP1 PUSH2 0x100 EXP SWAP1 DIV PUSH20 0xFFFFFFFFFFFFFFFFFFFFFFFFFFFFFFFFFFFFFFFF AND SWAP1 POP DUP2 PUSH1 0x0 DUP1 PUSH2 0x100 EXP DUP2 SLOAD DUP2 PUSH20 0xFFFFFFFFFFFFFFFFFFFFFFFFFFFFFFFFFFFFFFFF MUL NOT AND SWAP1 DUP4 PUSH20 0xFFFFFFFFFFFFFFFFFFFFFFFFFFFFFFFFFFFFFFFF AND MUL OR SWAP1 SSTORE POP DUP2 PUSH20 0xFFFFFFFFFFFFFFFFFFFFFFFFFFFFFFFFFFFFFFFF AND DUP2 PUSH20 0xFFFFFFFFFFFFFFFFFFFFFFFFFFFFFFFFFFFFFFFF AND PUSH32 0x8BE0079C531659141344CD1FD0A4F28419497F9722A3DAAFE3B4186F6B6457E0 PUSH1 0x40 MLOAD PUSH1 0x40 MLOAD DUP1 SWAP2 SUB SWAP1 LOG3 POP POP JUMP JUMPDEST PUSH2 0xD0D DUP1 PUSH2 0x10D PUSH1 0x0 CODECOPY PUSH1 0x0 RETURN INVALID PUSH1 0x80 PUSH1 0x40 MSTORE PUSH1 0x4 CALLDATASIZE LT PUSH2 0x59 JUMPI PUSH1 0x0 CALLDATALOAD PUSH1 0xE0 SHR DUP1 PUSH4 0x3E5BEAB9 EQ PUSH2 0xAA JUMPI DUP1 PUSH4 0x715018A6 EQ PUSH2 0xE7 JUMPI DUP1 PUSH4 0x8DA5CB5B EQ PUSH2 0xFE JUMPI DUP1 PUSH4 0xB39D7B7C EQ PUSH2 0x129 JUMPI DUP1 PUSH4 0xF2FDE38B EQ PUSH2 0x152 JUMPI DUP1 PUSH4 0xF3C40C4B EQ PUSH2 0x17B JUMPI PUSH2 0x5A JUMP JUMPDEST JUMPDEST CALLER PUSH20 0xFFFFFFFFFFFFFFFFFFFFFFFFFFFFFFFFFFFFFFFF AND PUSH32 0x2173C5E71C51B969E5ADF473175DB282E83A6813E5B451F537689BC3456A2F3C CALLVALUE PUSH1 0x40 MLOAD PUSH2 0xA0 SWAP2 SWAP1 PUSH2 0xA6E JUMP JUMPDEST PUSH1 0x40 MLOAD DUP1 SWAP2 SUB SWAP1 LOG2 STOP JUMPDEST CALLVALUE DUP1 ISZERO PUSH2 0xB6 JUMPI PUSH1 0x0 DUP1 REVERT JUMPDEST POP PUSH2 0xD1 PUSH1 0x4 DUP1 CALLDATASIZE SUB DUP2 ADD SWAP1 PUSH2 0xCC SWAP2 SWAP1 PUSH2 0x839 JUMP JUMPDEST PUSH2 0x1A4 JUMP JUMPDEST PUSH1 0x40 MLOAD PUSH2 0xDE SWAP2 SWAP1 PUSH2 0xA6E JUMP JUMPDEST PUSH1 0x40 MLOAD DUP1 SWAP2 SUB SWAP1 RETURN JUMPDEST CALLVALUE DUP1 ISZERO PUSH2 0xF3 JUMPI PUSH1 0x0 DUP1 REVERT JUMPDEST POP PUSH2 0xFC PUSH2 0x1BC JUMP JUMPDEST STOP JUMPDEST CALLVALUE DUP1 ISZERO PUSH2 0x10A JUMPI PUSH1 0x0 DUP1 REVERT JUMPDEST POP PUSH2 0x113 PUSH2 0x1FF JUMP JUMPDEST PUSH1 0x40 MLOAD PUSH2 0x120 SWAP2 SWAP1 PUSH2 0x9B3 JUMP JUMPDEST PUSH1 0x40 MLOAD DUP1 SWAP2 SUB SWAP1 RETURN JUMPDEST CALLVALUE DUP1 ISZERO PUSH2 0x135 JUMPI PUSH1 0x0 DUP1 REVERT JUMPDEST POP PUSH2 0x150 PUSH1 0x4 DUP1 CALLDATASIZE SUB DUP2 ADD SWAP1 PUSH2 0x14B SWAP2 SWAP1 PUSH2 0x866 JUMP JUMPDEST PUSH2 0x228 JUMP JUMPDEST STOP JUMPDEST CALLVALUE DUP1 ISZERO PUSH2 0x15E JUMPI PUSH1 0x0 DUP1 REVERT JUMPDEST POP PUSH2 0x179 PUSH1 0x4 DUP1 CALLDATASIZE SUB DUP2 ADD SWAP1 PUSH2 0x174 SWAP2 SWAP1 PUSH2 0x839 JUMP JUMPDEST PUSH2 0x3AF JUMP JUMPDEST STOP JUMPDEST CALLVALUE DUP1 ISZERO PUSH2 0x187 JUMPI PUSH1 0x0 DUP1 REVERT JUMPDEST POP PUSH2 0x1A2 PUSH1 0x4 DUP1 CALLDATASIZE SUB DUP2 ADD SWAP1 PUSH2 0x19D SWAP2 SWAP1 PUSH2 0x8A6 JUMP JUMPDEST PUSH2 0x433 JUMP JUMPDEST STOP JUMPDEST PUSH1 0x1 PUSH1 0x20 MSTORE DUP1 PUSH1 0x0 MSTORE PUSH1 0x40 PUSH1 0x0 KECCAK256 PUSH1 0x0 SWAP2 POP SWAP1 POP SLOAD DUP2 JUMP JUMPDEST PUSH2 0x1C4 PUSH2 0x529 JUMP JUMPDEST PUSH1 0x40 MLOAD PUSH32 0x8C379A000000000000000000000000000000000000000000000000000000000 DUP2 MSTORE PUSH1 0x4 ADD PUSH2 0x1F6 SWAP1 PUSH2 0x9EE JUMP JUMPDEST PUSH1 0x40 MLOAD DUP1 SWAP2 SUB SWAP1 REVERT JUMPDEST PUSH1 0x0 DUP1 PUSH1 0x0 SWAP1 SLOAD SWAP1 PUSH2 0x100 EXP SWAP1 DIV PUSH20 0xFFFFFFFFFFFFFFFFFFFFFFFFFFFFFFFFFFFFFFFF AND SWAP1 POP SWAP1 JUMP JUMPDEST DUP1 PUSH2 0x231 PUSH2 0x5A7 JUMP JUMPDEST DUP1 PUSH2 0x27B JUMPI POP DUP1 PUSH1 0x1 PUSH1 0x0 CALLER PUSH20 0xFFFFFFFFFFFFFFFFFFFFFFFFFFFFFFFFFFFFFFFF AND PUSH20 0xFFFFFFFFFFFFFFFFFFFFFFFFFFFFFFFFFFFFFFFF AND DUP2 MSTORE PUSH1 0x20 ADD SWAP1 DUP2 MSTORE PUSH1 0x20 ADD PUSH1 0x0 KECCAK256 SLOAD LT ISZERO JUMPDEST PUSH2 0x2BA JUMPI PUSH1 0x40 MLOAD PUSH32 0x8C379A000000000000000000000000000000000000000000000000000000000 DUP2 MSTORE PUSH1 0x4 ADD PUSH2 0x2B1 SWAP1 PUSH2 0xA2E JUMP JUMPDEST PUSH1 0x40 MLOAD DUP1 SWAP2 SUB SWAP1 REVERT JUMPDEST DUP2 SELFBALANCE LT ISZERO PUSH2 0x2FD JUMPI PUSH1 0x40 MLOAD PUSH32 0x8C379A000000000000000000000000000000000000000000000000000000000 DUP2 MSTORE PUSH1 0x4 ADD PUSH2 0x2F4 SWAP1 PUSH2 0xA0E JUMP JUMPDEST PUSH1 0x40 MLOAD DUP1 SWAP2 SUB SWAP1 REVERT JUMPDEST PUSH2 0x305 PUSH2 0x5A7 JUMP JUMPDEST ISZERO PUSH2 0x315 JUMPI PUSH2 0x314 CALLER DUP4 PUSH2 0x5E4 JUMP JUMPDEST JUMPDEST DUP3 PUSH20 0xFFFFFFFFFFFFFFFFFFFFFFFFFFFFFFFFFFFFFFFF AND PUSH32 0x84FED5136983DF2F9B05E9BE1060AD085DB88D6F35A628B6B4E0963FF539D48B DUP4 PUSH1 0x40 MLOAD PUSH2 0x35B SWAP2 SWAP1 PUSH2 0xA6E JUMP JUMPDEST PUSH1 0x40 MLOAD DUP1 SWAP2 SUB SWAP1 LOG2 DUP3 PUSH20 0xFFFFFFFFFFFFFFFFFFFFFFFFFFFFFFFFFFFFFFFF AND PUSH2 0x8FC DUP4 SWAP1 DUP2 ISZERO MUL SWAP1 PUSH1 0x40 MLOAD PUSH1 0x0 PUSH1 0x40 MLOAD DUP1 DUP4 SUB DUP2 DUP6 DUP9 DUP9 CALL SWAP4 POP POP POP POP ISZERO DUP1 ISZERO PUSH2 0x3A9 JUMPI RETURNDATASIZE PUSH1 0x0 DUP1 RETURNDATACOPY RETURNDATASIZE PUSH1 0x0 REVERT JUMPDEST POP POP POP POP JUMP JUMPDEST PUSH2 0x3B7 PUSH2 0x529 JUMP JUMPDEST PUSH1 0x0 PUSH20 0xFFFFFFFFFFFFFFFFFFFFFFFFFFFFFFFFFFFFFFFF AND DUP2 PUSH20 0xFFFFFFFFFFFFFFFFFFFFFFFFFFFFFFFFFFFFFFFF AND EQ ISZERO PUSH2 0x427 JUMPI PUSH1 0x40 MLOAD PUSH32 0x8C379A000000000000000000000000000000000000000000000000000000000 DUP2 MSTORE PUSH1 0x4 ADD PUSH2 0x41E SWAP1 PUSH2 0x9CE JUMP JUMPDEST PUSH1 0x40 MLOAD DUP1 SWAP2 SUB SWAP1 REVERT JUMPDEST PUSH2 0x430 DUP2 PUSH2 0x72E JUMP JUMPDEST POP JUMP JUMPDEST PUSH2 0x43B PUSH2 0x529 JUMP JUMPDEST CALLER PUSH20 0xFFFFFFFFFFFFFFFFFFFFFFFFFFFFFFFFFFFFFFFF AND DUP3 PUSH20 0xFFFFFFFFFFFFFFFFFFFFFFFFFFFFFFFFFFFFFFFF AND PUSH32 0x3691D1A86D99355E52B689CA70A7BDF6D80763237A6AA06E5FA43964EAC7244B PUSH1 0x1 PUSH1 0x0 DUP7 PUSH20 0xFFFFFFFFFFFFFFFFFFFFFFFFFFFFFFFFFFFFFFFF AND PUSH20 0xFFFFFFFFFFFFFFFFFFFFFFFFFFFFFFFFFFFFFFFF AND DUP2 MSTORE PUSH1 0x20 ADD SWAP1 DUP2 MSTORE PUSH1 0x20 ADD PUSH1 0x0 KECCAK256 SLOAD DUP5 PUSH1 0x40 MLOAD PUSH2 0x4D9 SWAP3 SWAP2 SWAP1 PUSH2 0xA89 JUMP JUMPDEST PUSH1 0x40 MLOAD DUP1 SWAP2 SUB SWAP1 LOG3 DUP1 PUSH1 0x1 PUSH1 0x0 DUP5 PUSH20 0xFFFFFFFFFFFFFFFFFFFFFFFFFFFFFFFFFFFFFFFF AND PUSH20 0xFFFFFFFFFFFFFFFFFFFFFFFFFFFFFFFFFFFFFFFF AND DUP2 MSTORE PUSH1 0x20 ADD SWAP1 DUP2 MSTORE PUSH1 0x20 ADD PUSH1 0x0 KECCAK256 DUP2 SWAP1 SSTORE POP POP POP JUMP JUMPDEST PUSH2 0x531 PUSH2 0x7F2 JUMP JUMPDEST PUSH20 0xFFFFFFFFFFFFFFFFFFFFFFFFFFFFFFFFFFFFFFFF AND PUSH2 0x54F PUSH2 0x1FF JUMP JUMPDEST PUSH20 0xFFFFFFFFFFFFFFFFFFFFFFFFFFFFFFFFFFFFFFFF AND EQ PUSH2 0x5A5 JUMPI PUSH1 0x40 MLOAD PUSH32 0x8C379A000000000000000000000000000000000000000000000000000000000 DUP2 MSTORE PUSH1 0x4 ADD PUSH2 0x59C SWAP1 PUSH2 0xA4E JUMP JUMPDEST PUSH1 0x40 MLOAD DUP1 SWAP2 SUB SWAP1 REVERT JUMPDEST JUMP JUMPDEST PUSH1 0x0 CALLER PUSH20 0xFFFFFFFFFFFFFFFFFFFFFFFFFFFFFFFFFFFFFFFF AND PUSH2 0x5C8 PUSH2 0x1FF JUMP JUMPDEST PUSH20 0xFFFFFFFFFFFFFFFFFFFFFFFFFFFFFFFFFFFFFFFF AND EQ SWAP1 POP SWAP1 JUMP JUMPDEST CALLER PUSH20 0xFFFFFFFFFFFFFFFFFFFFFFFFFFFFFFFFFFFFFFFF AND DUP3 PUSH20 0xFFFFFFFFFFFFFFFFFFFFFFFFFFFFFFFFFFFFFFFF AND PUSH32 0x3691D1A86D99355E52B689CA70A7BDF6D80763237A6AA06E5FA43964EAC7244B PUSH1 0x1 PUSH1 0x0 DUP7 PUSH20 0xFFFFFFFFFFFFFFFFFFFFFFFFFFFFFFFFFFFFFFFF AND PUSH20 0xFFFFFFFFFFFFFFFFFFFFFFFFFFFFFFFFFFFFFFFF AND DUP2 MSTORE PUSH1 0x20 ADD SWAP1 DUP2 MSTORE PUSH1 0x20 ADD PUSH1 0x0 KECCAK256 SLOAD DUP5 PUSH1 0x1 PUSH1 0x0 DUP9 PUSH20 0xFFFFFFFFFFFFFFFFFFFFFFFFFFFFFFFFFFFFFFFF AND PUSH20 0xFFFFFFFFFFFFFFFFFFFFFFFFFFFFFFFFFFFFFFFF AND DUP2 MSTORE PUSH1 0x20 ADD SWAP1 DUP2 MSTORE PUSH1 0x20 ADD PUSH1 0x0 KECCAK256 SLOAD PUSH2 0x6BE SWAP2 SWAP1 PUSH2 0xAC3 JUMP JUMPDEST PUSH1 0x40 MLOAD PUSH2 0x6CC SWAP3 SWAP2 SWAP1 PUSH2 0xA89 JUMP JUMPDEST PUSH1 0x40 MLOAD DUP1 SWAP2 SUB SWAP1 LOG3 DUP1 PUSH1 0x1 PUSH1 0x0 DUP5 PUSH20 0xFFFFFFFFFFFFFFFFFFFFFFFFFFFFFFFFFFFFFFFF AND PUSH20 0xFFFFFFFFFFFFFFFFFFFFFFFFFFFFFFFFFFFFFFFF AND DUP2 MSTORE PUSH1 0x20 ADD SWAP1 DUP2 MSTORE PUSH1 0x20 ADD PUSH1 0x0 KECCAK256 PUSH1 0x0 DUP3 DUP3 SLOAD PUSH2 0x723 SWAP2 SWAP1 PUSH2 0xAC3 JUMP JUMPDEST SWAP3 POP POP DUP2 SWAP1 SSTORE POP POP POP JUMP JUMPDEST PUSH1 0x0 DUP1 PUSH1 0x0 SWAP1 SLOAD SWAP1 PUSH2 0x100 EXP SWAP1 DIV PUSH20 0xFFFFFFFFFFFFFFFFFFFFFFFFFFFFFFFFFFFFFFFF AND SWAP1 POP DUP2 PUSH1 0x0 DUP1 PUSH2 0x100 EXP DUP2 SLOAD DUP2 PUSH20 0xFFFFFFFFFFFFFFFFFFFFFFFFFFFFFFFFFFFFFFFF MUL NOT AND SWAP1 DUP4 PUSH20 0xFFFFFFFFFFFFFFFFFFFFFFFFFFFFFFFFFFFFFFFF AND MUL OR SWAP1 SSTORE POP DUP2 PUSH20 0xFFFFFFFFFFFFFFFFFFFFFFFFFFFFFFFFFFFFFFFF AND DUP2 PUSH20 0xFFFFFFFFFFFFFFFFFFFFFFFFFFFFFFFFFFFFFFFF AND PUSH32 0x8BE0079C531659141344CD1FD0A4F28419497F9722A3DAAFE3B4186F6B6457E0 PUSH1 0x40 MLOAD PUSH1 0x40 MLOAD DUP1 SWAP2 SUB SWAP1 LOG3 POP POP JUMP JUMPDEST PUSH1 0x0 CALLER SWAP1 POP SWAP1 JUMP JUMPDEST PUSH1 0x0 DUP2 CALLDATALOAD SWAP1 POP PUSH2 0x809 DUP2 PUSH2 0xC92 JUMP JUMPDEST SWAP3 SWAP2 POP POP JUMP JUMPDEST PUSH1 0x0 DUP2 CALLDATALOAD SWAP1 POP PUSH2 0x81E DUP2 PUSH2 0xCA9 JUMP JUMPDEST SWAP3 SWAP2 POP POP JUMP JUMPDEST PUSH1 0x0 DUP2 CALLDATALOAD SWAP1 POP PUSH2 0x833 DUP2 PUSH2 0xCC0 JUMP JUMPDEST SWAP3 SWAP2 POP POP JUMP JUMPDEST PUSH1 0x0 PUSH1 0x20 DUP3 DUP5 SUB SLT ISZERO PUSH2 0x84F JUMPI PUSH2 0x84E PUSH2 0xB74 JUMP JUMPDEST JUMPDEST PUSH1 0x0 PUSH2 0x85D DUP5 DUP3 DUP6 ADD PUSH2 0x7FA JUMP JUMPDEST SWAP2 POP POP SWAP3 SWAP2 POP POP JUMP JUMPDEST PUSH1 0x0 DUP1 PUSH1 0x40 DUP4 DUP6 SUB SLT ISZERO PUSH2 0x87D JUMPI PUSH2 0x87C PUSH2 0xB74 JUMP JUMPDEST JUMPDEST PUSH1 0x0 PUSH2 0x88B DUP6 DUP3 DUP7 ADD PUSH2 0x80F JUMP JUMPDEST SWAP3 POP POP PUSH1 0x20 PUSH2 0x89C DUP6 DUP3 DUP7 ADD PUSH2 0x824 JUMP JUMPDEST SWAP2 POP POP SWAP3 POP SWAP3 SWAP1 POP JUMP JUMPDEST PUSH1 0x0 DUP1 PUSH1 0x40 DUP4 DUP6 SUB SLT ISZERO PUSH2 0x8BD JUMPI PUSH2 0x8BC PUSH2 0xB74 JUMP JUMPDEST JUMPDEST PUSH1 0x0 PUSH2 0x8CB DUP6 DUP3 DUP7 ADD PUSH2 0x7FA JUMP JUMPDEST SWAP3 POP POP PUSH1 0x20 PUSH2 0x8DC DUP6 DUP3 DUP7 ADD PUSH2 0x824 JUMP JUMPDEST SWAP2 POP POP SWAP3 POP SWAP3 SWAP1 POP JUMP JUMPDEST PUSH2 0x8EF DUP2 PUSH2 0xAF7 JUMP JUMPDEST DUP3 MSTORE POP POP JUMP JUMPDEST PUSH1 0x0 PUSH2 0x902 PUSH1 0x26 DUP4 PUSH2 0xAB2 JUMP JUMPDEST SWAP2 POP PUSH2 0x90D DUP3 PUSH2 0xB79 JUMP JUMPDEST PUSH1 0x40 DUP3 ADD SWAP1 POP SWAP2 SWAP1 POP JUMP JUMPDEST PUSH1 0x0 PUSH2 0x925 PUSH1 0x1C DUP4 PUSH2 0xAB2 JUMP JUMPDEST SWAP2 POP PUSH2 0x930 DUP3 PUSH2 0xBC8 JUMP JUMPDEST PUSH1 0x20 DUP3 ADD SWAP1 POP SWAP2 SWAP1 POP JUMP JUMPDEST PUSH1 0x0 PUSH2 0x948 PUSH1 0x37 DUP4 PUSH2 0xAB2 JUMP JUMPDEST SWAP2 POP PUSH2 0x953 DUP3 PUSH2 0xBF1 JUMP JUMPDEST PUSH1 0x40 DUP3 ADD SWAP1 POP SWAP2 SWAP1 POP JUMP JUMPDEST PUSH1 0x0 PUSH2 0x96B PUSH1 0x16 DUP4 PUSH2 0xAB2 JUMP JUMPDEST SWAP2 POP PUSH2 0x976 DUP3 PUSH2 0xC40 JUMP JUMPDEST PUSH1 0x20 DUP3 ADD SWAP1 POP SWAP2 SWAP1 POP JUMP JUMPDEST PUSH1 0x0 PUSH2 0x98E PUSH1 0x20 DUP4 PUSH2 0xAB2 JUMP JUMPDEST SWAP2 POP PUSH2 0x999 DUP3 PUSH2 0xC69 JUMP JUMPDEST PUSH1 0x20 DUP3 ADD SWAP1 POP SWAP2 SWAP1 POP JUMP JUMPDEST PUSH2 0x9AD DUP2 PUSH2 0xB3B JUMP JUMPDEST DUP3 MSTORE POP POP JUMP JUMPDEST PUSH1 0x0 PUSH1 0x20 DUP3 ADD SWAP1 POP PUSH2 0x9C8 PUSH1 0x0 DUP4 ADD DUP5 PUSH2 0x8E6 JUMP JUMPDEST SWAP3 SWAP2 POP POP JUMP JUMPDEST PUSH1 0x0 PUSH1 0x20 DUP3 ADD SWAP1 POP DUP2 DUP2 SUB PUSH1 0x0 DUP4 ADD MSTORE PUSH2 0x9E7 DUP2 PUSH2 0x8F5 JUMP JUMPDEST SWAP1 POP SWAP2 SWAP1 POP JUMP JUMPDEST PUSH1 0x0 PUSH1 0x20 DUP3 ADD SWAP1 POP DUP2 DUP2 SUB PUSH1 0x0 DUP4 ADD MSTORE PUSH2 0xA07 DUP2 PUSH2 0x918 JUMP JUMPDEST SWAP1 POP SWAP2 SWAP1 POP JUMP JUMPDEST PUSH1 0x0 PUSH1 0x20 DUP3 ADD SWAP1 POP DUP2 DUP2 SUB PUSH1 0x0 DUP4 ADD MSTORE PUSH2 0xA27 DUP2 PUSH2 0x93B JUMP JUMPDEST SWAP1 POP SWAP2 SWAP1 POP JUMP JUMPDEST PUSH1 0x0 PUSH1 0x20 DUP3 ADD SWAP1 POP DUP2 DUP2 SUB PUSH1 0x0 DUP4 ADD MSTORE PUSH2 0xA47 DUP2 PUSH2 0x95E JUMP JUMPDEST SWAP1 POP SWAP2 SWAP1 POP JUMP JUMPDEST PUSH1 0x0 PUSH1 0x20 DUP3 ADD SWAP1 POP DUP2 DUP2 SUB PUSH1 0x0 DUP4 ADD MSTORE PUSH2 0xA67 DUP2 PUSH2 0x981 JUMP JUMPDEST SWAP1 POP SWAP2 SWAP1 POP JUMP JUMPDEST PUSH1 0x0 PUSH1 0x20 DUP3 ADD SWAP1 POP PUSH2 0xA83 PUSH1 0x0 DUP4 ADD DUP5 PUSH2 0x9A4 JUMP JUMPDEST SWAP3 SWAP2 POP POP JUMP JUMPDEST PUSH1 0x0 PUSH1 0x40 DUP3 ADD SWAP1 POP PUSH2 0xA9E PUSH1 0x0 DUP4 ADD DUP6 PUSH2 0x9A4 JUMP JUMPDEST PUSH2 0xAAB PUSH1 0x20 DUP4 ADD DUP5 PUSH2 0x9A4 JUMP JUMPDEST SWAP4 SWAP3 POP POP POP JUMP JUMPDEST PUSH1 0x0 DUP3 DUP3 MSTORE PUSH1 0x20 DUP3 ADD SWAP1 POP SWAP3 SWAP2 POP POP JUMP JUMPDEST PUSH1 0x0 PUSH2 0xACE DUP3 PUSH2 0xB3B JUMP JUMPDEST SWAP2 POP PUSH2 0xAD9 DUP4 PUSH2 0xB3B JUMP JUMPDEST SWAP3 POP DUP3 DUP3 LT ISZERO PUSH2 0xAEC JUMPI PUSH2 0xAEB PUSH2 0xB45 JUMP JUMPDEST JUMPDEST DUP3 DUP3 SUB SWAP1 POP SWAP3 SWAP2 POP POP JUMP JUMPDEST PUSH1 0x0 PUSH2 0xB02 DUP3 PUSH2 0xB1B JUMP JUMPDEST SWAP1 POP SWAP2 SWAP1 POP JUMP JUMPDEST PUSH1 0x0 PUSH2 0xB14 DUP3 PUSH2 0xB1B JUMP JUMPDEST SWAP1 POP SWAP2 SWAP1 POP JUMP JUMPDEST PUSH1 0x0 PUSH20 0xFFFFFFFFFFFFFFFFFFFFFFFFFFFFFFFFFFFFFFFF DUP3 AND SWAP1 POP SWAP2 SWAP1 POP JUMP JUMPDEST PUSH1 0x0 DUP2 SWAP1 POP SWAP2 SWAP1 POP JUMP JUMPDEST PUSH32 0x4E487B7100000000000000000000000000000000000000000000000000000000 PUSH1 0x0 MSTORE PUSH1 0x11 PUSH1 0x4 MSTORE PUSH1 0x24 PUSH1 0x0 REVERT JUMPDEST PUSH1 0x0 DUP1 REVERT JUMPDEST PUSH32 0x4F776E61626C653A206E6577206F776E657220697320746865207A65726F2061 PUSH1 0x0 DUP3 ADD MSTORE PUSH32 0x6464726573730000000000000000000000000000000000000000000000000000 PUSH1 0x20 DUP3 ADD MSTORE POP JUMP JUMPDEST PUSH32 0x63616E27742072656E6F756E63654F776E657273686970206865726500000000 PUSH1 0x0 DUP3 ADD MSTORE POP JUMP JUMPDEST PUSH32 0x746865726520617265206E6F7420656E6F7567682066756E64732073746F7265 PUSH1 0x0 DUP3 ADD MSTORE PUSH32 0x6420696E2074686520736D61727420636F6E7472616374000000000000000000 PUSH1 0x20 DUP3 ADD MSTORE POP JUMP JUMPDEST PUSH32 0x596F7520617265206E6F7420616C6C6F77656421212100000000000000000000 PUSH1 0x0 DUP3 ADD MSTORE POP JUMP JUMPDEST PUSH32 0x4F776E61626C653A2063616C6C6572206973206E6F7420746865206F776E6572 PUSH1 0x0 DUP3 ADD MSTORE POP JUMP JUMPDEST PUSH2 0xC9B DUP2 PUSH2 0xAF7 JUMP JUMPDEST DUP2 EQ PUSH2 0xCA6 JUMPI PUSH1 0x0 DUP1 REVERT JUMPDEST POP JUMP JUMPDEST PUSH2 0xCB2 DUP2 PUSH2 0xB09 JUMP JUMPDEST DUP2 EQ PUSH2 0xCBD JUMPI PUSH1 0x0 DUP1 REVERT JUMPDEST POP JUMP JUMPDEST PUSH2 0xCC9 DUP2 PUSH2 0xB3B JUMP JUMPDEST DUP2 EQ PUSH2 0xCD4 JUMPI PUSH1 0x0 DUP1 REVERT JUMPDEST POP JUMP INVALID LOG2 PUSH5 0x6970667358 0x22 SLT KECCAK256 0xB9 0x4E PUSH19 0xF2235D0ECCB5DE8C52720A8253A69317A520BB 0x26 MLOAD 0x29 0x21 0xBF 0xE3 LOG3 SWAP6 DUP5 0xAB PUSH5 0x736F6C6343 STOP ADDMOD SMOD STOP CALLER "
				},
				"gasEstimates": {
					"creation": {
						"codeDepositCost": "668200",
						"executionCost": "infinite",
						"totalCost": "infinite"
					},
					"external": {
						"": "1768",
						"addAllowance(address,uint256)": "infinite",
						"allowance(address)": "2792",
						"owner()": "2544",
						"renounceOwnership()": "2698",
						"transferOwnership(address)": "30813",
						"withDrawMoney(address,uint256)": "infinite"
					}
				},
				"methodIdentifiers": {
					"addAllowance(address,uint256)": "f3c40c4b",
					"allowance(address)": "3e5beab9",
					"owner()": "8da5cb5b",
					"renounceOwnership()": "715018a6",
					"transferOwnership(address)": "f2fde38b",
					"withDrawMoney(address,uint256)": "b39d7b7c"
				}
			},
			"storageLayout": {
				"storage": [
					{
						"astId": 195,
						"contract": "SimpleWalletGitAllowanceRenounceOwner.sol:SimpleWalletGit2",
						"label": "_owner",
						"offset": 0,
						"slot": "0",
						"type": "t_address"
					},
					{
						"astId": 18,
						"contract": "SimpleWalletGitAllowanceRenounceOwner.sol:SimpleWalletGit2",
						"label": "allowance",
						"offset": 0,
						"slot": "1",
						"type": "t_mapping(t_address,t_uint256)"
					}
				],
				"types": {
					"t_address": {
						"encoding": "inplace",
						"label": "address",
						"numberOfBytes": "20"
					},
					"t_mapping(t_address,t_uint256)": {
						"encoding": "mapping",
						"key": "t_address",
						"label": "mapping(address => uint256)",
						"numberOfBytes": "32",
						"value": "t_uint256"
					},
					"t_uint256": {
						"encoding": "inplace",
						"label": "uint256",
						"numberOfBytes": "32"
					}
				}
			},
			"userdoc": {
				"kind": "user",
				"methods": {},
				"version": 1
			}
		}
	}
}